{
  "_format": "hh-sol-artifact-1",
  "contractName": "CoffeeToken",
  "sourceName": "contracts/CoffeToken.sol",
  "abi": [
    {
      "inputs": [
        {
          "internalType": "address",
          "name": "defaultAdmin",
          "type": "address"
        },
        {
          "internalType": "address",
          "name": "minter",
          "type": "address"
        }
      ],
      "stateMutability": "nonpayable",
      "type": "constructor"
    },
    {
      "inputs": [],
      "name": "AccessControlBadConfirmation",
      "type": "error"
    },
    {
      "inputs": [
        {
          "internalType": "address",
          "name": "account",
          "type": "address"
        },
        {
          "internalType": "bytes32",
          "name": "neededRole",
          "type": "bytes32"
        }
      ],
      "name": "AccessControlUnauthorizedAccount",
      "type": "error"
    },
    {
      "inputs": [
        {
          "internalType": "address",
          "name": "spender",
          "type": "address"
        },
        {
          "internalType": "uint256",
          "name": "allowance",
          "type": "uint256"
        },
        {
          "internalType": "uint256",
          "name": "needed",
          "type": "uint256"
        }
      ],
      "name": "ERC20InsufficientAllowance",
      "type": "error"
    },
    {
      "inputs": [
        {
          "internalType": "address",
          "name": "sender",
          "type": "address"
        },
        {
          "internalType": "uint256",
          "name": "balance",
          "type": "uint256"
        },
        {
          "internalType": "uint256",
          "name": "needed",
          "type": "uint256"
        }
      ],
      "name": "ERC20InsufficientBalance",
      "type": "error"
    },
    {
      "inputs": [
        {
          "internalType": "address",
          "name": "approver",
          "type": "address"
        }
      ],
      "name": "ERC20InvalidApprover",
      "type": "error"
    },
    {
      "inputs": [
        {
          "internalType": "address",
          "name": "receiver",
          "type": "address"
        }
      ],
      "name": "ERC20InvalidReceiver",
      "type": "error"
    },
    {
      "inputs": [
        {
          "internalType": "address",
          "name": "sender",
          "type": "address"
        }
      ],
      "name": "ERC20InvalidSender",
      "type": "error"
    },
    {
      "inputs": [
        {
          "internalType": "address",
          "name": "spender",
          "type": "address"
        }
      ],
      "name": "ERC20InvalidSpender",
      "type": "error"
    },
    {
      "anonymous": false,
      "inputs": [
        {
          "indexed": true,
          "internalType": "address",
          "name": "owner",
          "type": "address"
        },
        {
          "indexed": true,
          "internalType": "address",
          "name": "spender",
          "type": "address"
        },
        {
          "indexed": false,
          "internalType": "uint256",
          "name": "value",
          "type": "uint256"
        }
      ],
      "name": "Approval",
      "type": "event"
    },
    {
      "anonymous": false,
      "inputs": [
        {
          "indexed": true,
          "internalType": "address",
          "name": "receiver",
          "type": "address"
        },
        {
          "indexed": true,
          "internalType": "address",
          "name": "buyer",
          "type": "address"
        }
      ],
      "name": "CoffeePurchased",
      "type": "event"
    },
    {
      "anonymous": false,
      "inputs": [
        {
          "indexed": true,
          "internalType": "bytes32",
          "name": "role",
          "type": "bytes32"
        },
        {
          "indexed": true,
          "internalType": "bytes32",
          "name": "previousAdminRole",
          "type": "bytes32"
        },
        {
          "indexed": true,
          "internalType": "bytes32",
          "name": "newAdminRole",
          "type": "bytes32"
        }
      ],
      "name": "RoleAdminChanged",
      "type": "event"
    },
    {
      "anonymous": false,
      "inputs": [
        {
          "indexed": true,
          "internalType": "bytes32",
          "name": "role",
          "type": "bytes32"
        },
        {
          "indexed": true,
          "internalType": "address",
          "name": "account",
          "type": "address"
        },
        {
          "indexed": true,
          "internalType": "address",
          "name": "sender",
          "type": "address"
        }
      ],
      "name": "RoleGranted",
      "type": "event"
    },
    {
      "anonymous": false,
      "inputs": [
        {
          "indexed": true,
          "internalType": "bytes32",
          "name": "role",
          "type": "bytes32"
        },
        {
          "indexed": true,
          "internalType": "address",
          "name": "account",
          "type": "address"
        },
        {
          "indexed": true,
          "internalType": "address",
          "name": "sender",
          "type": "address"
        }
      ],
      "name": "RoleRevoked",
      "type": "event"
    },
    {
      "anonymous": false,
      "inputs": [
        {
          "indexed": true,
          "internalType": "address",
          "name": "from",
          "type": "address"
        },
        {
          "indexed": true,
          "internalType": "address",
          "name": "to",
          "type": "address"
        },
        {
          "indexed": false,
          "internalType": "uint256",
          "name": "value",
          "type": "uint256"
        }
      ],
      "name": "Transfer",
      "type": "event"
    },
    {
      "inputs": [],
      "name": "DEFAULT_ADMIN_ROLE",
      "outputs": [
        {
          "internalType": "bytes32",
          "name": "",
          "type": "bytes32"
        }
      ],
      "stateMutability": "view",
      "type": "function"
    },
    {
      "inputs": [],
      "name": "MINTER_ROLE",
      "outputs": [
        {
          "internalType": "bytes32",
          "name": "",
          "type": "bytes32"
        }
      ],
      "stateMutability": "view",
      "type": "function"
    },
    {
      "inputs": [
        {
          "internalType": "address",
          "name": "owner",
          "type": "address"
        },
        {
          "internalType": "address",
          "name": "spender",
          "type": "address"
        }
      ],
      "name": "allowance",
      "outputs": [
        {
          "internalType": "uint256",
          "name": "",
          "type": "uint256"
        }
      ],
      "stateMutability": "view",
      "type": "function"
    },
    {
      "inputs": [
        {
          "internalType": "address",
          "name": "spender",
          "type": "address"
        },
        {
          "internalType": "uint256",
          "name": "value",
          "type": "uint256"
        }
      ],
      "name": "approve",
      "outputs": [
        {
          "internalType": "bool",
          "name": "",
          "type": "bool"
        }
      ],
      "stateMutability": "nonpayable",
      "type": "function"
    },
    {
      "inputs": [
        {
          "internalType": "address",
          "name": "account",
          "type": "address"
        }
      ],
      "name": "balanceOf",
      "outputs": [
        {
          "internalType": "uint256",
          "name": "",
          "type": "uint256"
        }
      ],
      "stateMutability": "view",
      "type": "function"
    },
    {
      "inputs": [],
      "name": "buyOneCoffee",
      "outputs": [],
      "stateMutability": "nonpayable",
      "type": "function"
    },
    {
      "inputs": [
        {
          "internalType": "address",
          "name": "account",
          "type": "address"
        }
      ],
      "name": "buyOneCoffeeFrom",
      "outputs": [],
      "stateMutability": "nonpayable",
      "type": "function"
    },
    {
      "inputs": [],
      "name": "decimals",
      "outputs": [
        {
          "internalType": "uint8",
          "name": "",
          "type": "uint8"
        }
      ],
      "stateMutability": "view",
      "type": "function"
    },
    {
      "inputs": [
        {
          "internalType": "bytes32",
          "name": "role",
          "type": "bytes32"
        }
      ],
      "name": "getRoleAdmin",
      "outputs": [
        {
          "internalType": "bytes32",
          "name": "",
          "type": "bytes32"
        }
      ],
      "stateMutability": "view",
      "type": "function"
    },
    {
      "inputs": [
        {
          "internalType": "bytes32",
          "name": "role",
          "type": "bytes32"
        },
        {
          "internalType": "address",
          "name": "account",
          "type": "address"
        }
      ],
      "name": "grantRole",
      "outputs": [],
      "stateMutability": "nonpayable",
      "type": "function"
    },
    {
      "inputs": [
        {
          "internalType": "bytes32",
          "name": "role",
          "type": "bytes32"
        },
        {
          "internalType": "address",
          "name": "account",
          "type": "address"
        }
      ],
      "name": "hasRole",
      "outputs": [
        {
          "internalType": "bool",
          "name": "",
          "type": "bool"
        }
      ],
      "stateMutability": "view",
      "type": "function"
    },
    {
      "inputs": [
        {
          "internalType": "address",
          "name": "to",
          "type": "address"
        },
        {
          "internalType": "uint256",
          "name": "amount",
          "type": "uint256"
        }
      ],
      "name": "mint",
      "outputs": [],
      "stateMutability": "nonpayable",
      "type": "function"
    },
    {
      "inputs": [],
      "name": "name",
      "outputs": [
        {
          "internalType": "string",
          "name": "",
          "type": "string"
        }
      ],
      "stateMutability": "view",
      "type": "function"
    },
    {
      "inputs": [
        {
          "internalType": "bytes32",
          "name": "role",
          "type": "bytes32"
        },
        {
          "internalType": "address",
          "name": "callerConfirmation",
          "type": "address"
        }
      ],
      "name": "renounceRole",
      "outputs": [],
      "stateMutability": "nonpayable",
      "type": "function"
    },
    {
      "inputs": [
        {
          "internalType": "bytes32",
          "name": "role",
          "type": "bytes32"
        },
        {
          "internalType": "address",
          "name": "account",
          "type": "address"
        }
      ],
      "name": "revokeRole",
      "outputs": [],
      "stateMutability": "nonpayable",
      "type": "function"
    },
    {
      "inputs": [
        {
          "internalType": "bytes4",
          "name": "interfaceId",
          "type": "bytes4"
        }
      ],
      "name": "supportsInterface",
      "outputs": [
        {
          "internalType": "bool",
          "name": "",
          "type": "bool"
        }
      ],
      "stateMutability": "view",
      "type": "function"
    },
    {
      "inputs": [],
      "name": "symbol",
      "outputs": [
        {
          "internalType": "string",
          "name": "",
          "type": "string"
        }
      ],
      "stateMutability": "view",
      "type": "function"
    },
    {
      "inputs": [],
      "name": "totalSupply",
      "outputs": [
        {
          "internalType": "uint256",
          "name": "",
          "type": "uint256"
        }
      ],
      "stateMutability": "view",
      "type": "function"
    },
    {
      "inputs": [
        {
          "internalType": "address",
          "name": "to",
          "type": "address"
        },
        {
          "internalType": "uint256",
          "name": "value",
          "type": "uint256"
        }
      ],
      "name": "transfer",
      "outputs": [
        {
          "internalType": "bool",
          "name": "",
          "type": "bool"
        }
      ],
      "stateMutability": "nonpayable",
      "type": "function"
    },
    {
      "inputs": [
        {
          "internalType": "address",
          "name": "from",
          "type": "address"
        },
        {
          "internalType": "address",
          "name": "to",
          "type": "address"
        },
        {
          "internalType": "uint256",
          "name": "value",
          "type": "uint256"
        }
      ],
      "name": "transferFrom",
      "outputs": [
        {
          "internalType": "bool",
          "name": "",
          "type": "bool"
        }
      ],
      "stateMutability": "nonpayable",
      "type": "function"
    }
  ],
  "bytecode": "0x60806040523480156200001157600080fd5b5060405162001109380380620011098339810160408190526200003491620001ac565b6040518060400160405280600b81526020016a21b7b33332b2aa37b5b2b760a91b8152506040518060400160405280600381526020016243464560e81b81525081600390816200008591906200028b565b5060046200009482826200028b565b50620000a691506000905083620000dc565b50620000d37f9f2df0fed2c77648de5860a4cc508cd0818c85b8b8a1ab4ceeef8d981c8956a682620000dc565b50505062000357565b60008281526005602090815260408083206001600160a01b038516845290915281205460ff16620001855760008381526005602090815260408083206001600160a01b03861684529091529020805460ff191660011790556200013c3390565b6001600160a01b0316826001600160a01b0316847f2f8788117e7eff1d82e926ec794901d17c78024a50270940304540a733656f0d60405160405180910390a450600162000189565b5060005b92915050565b80516001600160a01b0381168114620001a757600080fd5b919050565b60008060408385031215620001c057600080fd5b620001cb836200018f565b9150620001db602084016200018f565b90509250929050565b634e487b7160e01b600052604160045260246000fd5b600181811c908216806200020f57607f821691505b6020821081036200023057634e487b7160e01b600052602260045260246000fd5b50919050565b601f82111562000286576000816000526020600020601f850160051c81016020861015620002615750805b601f850160051c820191505b8181101562000282578281556001016200026d565b5050505b505050565b81516001600160401b03811115620002a757620002a7620001e4565b620002bf81620002b88454620001fa565b8462000236565b602080601f831160018114620002f75760008415620002de5750858301515b600019600386901b1c1916600185901b17855562000282565b600085815260208120601f198616915b82811015620003285788860151825594840194600190910190840162000307565b5085821015620003475787850151600019600388901b60f8161c191681555b5050505050600190811b01905550565b610da280620003676000396000f3fe608060405234801561001057600080fd5b506004361061012c5760003560e01c806370a08231116100ad578063b9aa8c3111610071578063b9aa8c3114610272578063c49547321461027a578063d53913931461028d578063d547741f146102b4578063dd62ed3e146102c757600080fd5b806370a082311461021357806391d148541461023c57806395d89b411461024f578063a217fddf14610257578063a9059cbb1461025f57600080fd5b8063248a9ca3116100f4578063248a9ca3146101a65780632f2ff15d146101c9578063313ce567146101de57806336568abe146101ed57806340c10f191461020057600080fd5b806301ffc9a71461013157806306fdde0314610159578063095ea7b31461016e57806318160ddd1461018157806323b872dd14610193575b600080fd5b61014461013f366004610a73565b610300565b60405190151581526020015b60405180910390f35b610161610337565b6040516101509190610aa4565b61014461017c366004610b0f565b6103c9565b6002545b604051908152602001610150565b6101446101a1366004610b39565b6103e1565b6101856101b4366004610b75565b60009081526005602052604090206001015490565b6101dc6101d7366004610b8e565b610405565b005b60405160128152602001610150565b6101dc6101fb366004610b8e565b610430565b6101dc61020e366004610b0f565b610468565b610185610221366004610bba565b6001600160a01b031660009081526020819052604090205490565b61014461024a366004610b8e565b6104b1565b6101616104dc565b610185600081565b61014461026d366004610b0f565b6104eb565b6101dc6104f9565b6101dc610288366004610bba565b61054a565b6101857f9f2df0fed2c77648de5860a4cc508cd0818c85b8b8a1ab4ceeef8d981c8956a681565b6101dc6102c2366004610b8e565b6105af565b6101856102d5366004610bd5565b6001600160a01b03918216600090815260016020908152604080832093909416825291909152205490565b60006001600160e01b03198216637965db0b60e01b148061033157506301ffc9a760e01b6001600160e01b03198316145b92915050565b60606003805461034690610bff565b80601f016020809104026020016040519081016040528092919081815260200182805461037290610bff565b80156103bf5780601f10610394576101008083540402835291602001916103bf565b820191906000526020600020905b8154815290600101906020018083116103a257829003601f168201915b5050505050905090565b6000336103d78185856105d4565b5060019392505050565b6000336103ef8582856105e1565b6103fa85858561065e565b506001949350505050565b600082815260056020526040902060010154610420816106bd565b61042a83836106ca565b50505050565b6001600160a01b03811633146104595760405163334bd91960e11b815260040160405180910390fd5b610463828261075e565b505050565b7f9f2df0fed2c77648de5860a4cc508cd0818c85b8b8a1ab4ceeef8d981c8956a6610492816106bd565b610463836104a26012600a610d33565b6104ac9085610d42565b6107cb565b60009182526005602090815260408084206001600160a01b0393909316845291905290205460ff1690565b60606004805461034690610bff565b6000336103d781858561065e565b61051b3360125b61050b90600a610d33565b610516906001610d42565b610805565b604051339081907ff8e4eb3eb40f22463d6013f59313a34ebbd0557c5f9ab66aeb688810d451f75190600090a3565b61056b813361055b6012600a610d33565b610566906001610d42565b6105e1565b610576816012610500565b6040516001600160a01b0382169033907ff8e4eb3eb40f22463d6013f59313a34ebbd0557c5f9ab66aeb688810d451f75190600090a350565b6000828152600560205260409020600101546105ca816106bd565b61042a838361075e565b610463838383600161083b565b6001600160a01b03838116600090815260016020908152604080832093861683529290522054600019811461042a578181101561064f57604051637dc7a0d960e11b81526001600160a01b038416600482015260248101829052604481018390526064015b60405180910390fd5b61042a8484848403600061083b565b6001600160a01b03831661068857604051634b637e8f60e11b815260006004820152602401610646565b6001600160a01b0382166106b25760405163ec442f0560e01b815260006004820152602401610646565b610463838383610910565b6106c78133610a3a565b50565b60006106d683836104b1565b6107565760008381526005602090815260408083206001600160a01b03861684529091529020805460ff1916600117905561070e3390565b6001600160a01b0316826001600160a01b0316847f2f8788117e7eff1d82e926ec794901d17c78024a50270940304540a733656f0d60405160405180910390a4506001610331565b506000610331565b600061076a83836104b1565b156107565760008381526005602090815260408083206001600160a01b0386168085529252808320805460ff1916905551339286917ff6391f5c32d9c69d2a47ea670b442974b53935d1edc7fd64eb21e047a839171b9190a4506001610331565b6001600160a01b0382166107f55760405163ec442f0560e01b815260006004820152602401610646565b61080160008383610910565b5050565b6001600160a01b03821661082f57604051634b637e8f60e11b815260006004820152602401610646565b61080182600083610910565b6001600160a01b0384166108655760405163e602df0560e01b815260006004820152602401610646565b6001600160a01b03831661088f57604051634a1406b160e11b815260006004820152602401610646565b6001600160a01b038085166000908152600160209081526040808320938716835292905220829055801561042a57826001600160a01b0316846001600160a01b03167f8c5be1e5ebec7d5bd14f71427d1e84f3dd0314c0f7b2291e5b200ac8c7c3b9258460405161090291815260200190565b60405180910390a350505050565b6001600160a01b03831661093b5780600260008282546109309190610d59565b909155506109ad9050565b6001600160a01b0383166000908152602081905260409020548181101561098e5760405163391434e360e21b81526001600160a01b03851660048201526024810182905260448101839052606401610646565b6001600160a01b03841660009081526020819052604090209082900390555b6001600160a01b0382166109c9576002805482900390556109e8565b6001600160a01b03821660009081526020819052604090208054820190555b816001600160a01b0316836001600160a01b03167fddf252ad1be2c89b69c2b068fc378daa952ba7f163c4a11628f55a4df523b3ef83604051610a2d91815260200190565b60405180910390a3505050565b610a4482826104b1565b6108015760405163e2517d3f60e01b81526001600160a01b038216600482015260248101839052604401610646565b600060208284031215610a8557600080fd5b81356001600160e01b031981168114610a9d57600080fd5b9392505050565b60006020808352835180602085015260005b81811015610ad257858101830151858201604001528201610ab6565b506000604082860101526040601f19601f8301168501019250505092915050565b80356001600160a01b0381168114610b0a57600080fd5b919050565b60008060408385031215610b2257600080fd5b610b2b83610af3565b946020939093013593505050565b600080600060608486031215610b4e57600080fd5b610b5784610af3565b9250610b6560208501610af3565b9150604084013590509250925092565b600060208284031215610b8757600080fd5b5035919050565b60008060408385031215610ba157600080fd5b82359150610bb160208401610af3565b90509250929050565b600060208284031215610bcc57600080fd5b610a9d82610af3565b60008060408385031215610be857600080fd5b610bf183610af3565b9150610bb160208401610af3565b600181811c90821680610c1357607f821691505b602082108103610c3357634e487b7160e01b600052602260045260246000fd5b50919050565b634e487b7160e01b600052601160045260246000fd5b600181815b80851115610c8a578160001904821115610c7057610c70610c39565b80851615610c7d57918102915b93841c9390800290610c54565b509250929050565b600082610ca157506001610331565b81610cae57506000610331565b8160018114610cc45760028114610cce57610cea565b6001915050610331565b60ff841115610cdf57610cdf610c39565b50506001821b610331565b5060208310610133831016604e8410600b8410161715610d0d575081810a610331565b610d178383610c4f565b8060001904821115610d2b57610d2b610c39565b029392505050565b6000610a9d60ff841683610c92565b808202811582820484141761033157610331610c39565b8082018082111561033157610331610c3956fea2646970667358221220a5b5349fee20c3c4291f59a34013f858e46fd8eaaa90f741429617c6fd7c330e64736f6c63430008180033",
  "linkReferences": {},
  "deployedLinkReferences": {}
}