{
  "_format": "hh-sol-artifact-1",
  "contractName": "DemoV2",
  "sourceName": "contracts/DemoV2.sol",
  "abi": [
    {
      "inputs": [],
      "name": "name",
      "outputs": [
        {
          "internalType": "string",
          "name": "",
          "type": "string"
        }
      ],
      "stateMutability": "view",
      "type": "function"
    },
    {
      "inputs": [
        {
          "internalType": "string",
          "name": "_name",
          "type": "string"
        }
      ],
      "name": "setName",
      "outputs": [],
      "stateMutability": "nonpayable",
      "type": "function"
    },
    {
      "inputs": [],
      "name": "version",
      "outputs": [
        {
          "internalType": "string",
          "name": "",
          "type": "string"
        }
      ],
      "stateMutability": "pure",
      "type": "function"
    }
  ],
  "bytecode": "0x608060405234801561001057600080fd5b506103cf806100206000396000f3fe608060405234801561001057600080fd5b50600436106100415760003560e01c806306fdde031461004657806354fd4d5014610064578063c47f002714610085575b600080fd5b61004e61009a565b60405161005b9190610138565b60405180910390f35b6040805180820190915260058152640322e302e360dc1b602082015261004e565b61009861009336600461019d565b610128565b005b600080546100a79061024e565b80601f01602080910402602001604051908101604052809291908181526020018280546100d39061024e565b80156101205780601f106100f557610100808354040283529160200191610120565b820191906000526020600020905b81548152906001019060200180831161010357829003601f168201915b505050505081565b600061013482826102d9565b5050565b60006020808352835180602085015260005b818110156101665785810183015185820160400152820161014a565b506000604082860101526040601f19601f8301168501019250505092915050565b634e487b7160e01b600052604160045260246000fd5b6000602082840312156101af57600080fd5b813567ffffffffffffffff808211156101c757600080fd5b818401915084601f8301126101db57600080fd5b8135818111156101ed576101ed610187565b604051601f8201601f19908116603f0116810190838211818310171561021557610215610187565b8160405282815287602084870101111561022e57600080fd5b826020860160208301376000928101602001929092525095945050505050565b600181811c9082168061026257607f821691505b60208210810361028257634e487b7160e01b600052602260045260246000fd5b50919050565b601f8211156102d4576000816000526020600020601f850160051c810160208610156102b15750805b601f850160051c820191505b818110156102d0578281556001016102bd565b5050505b505050565b815167ffffffffffffffff8111156102f3576102f3610187565b61030781610301845461024e565b84610288565b602080601f83116001811461033c57600084156103245750858301515b600019600386901b1c1916600185901b1785556102d0565b600085815260208120601f198616915b8281101561036b5788860151825594840194600190910190840161034c565b50858210156103895787850151600019600388901b60f8161c191681555b5050505050600190811b0190555056fea2646970667358221220d4b091f4ecf7cbdc8b41dda3b802f8a46c1d4b140abef119d68e0bfaa4404d0064736f6c63430008180033",
  "linkReferences": {},
  "deployedLinkReferences": {}
}