{
  "_format": "hh-sol-artifact-1",
  "contractName": "TokenSale",
  "sourceName": "contracts/TokenTesting.sol",
  "abi": [
    {
      "inputs": [
        {
          "internalType": "address",
          "name": "_token",
          "type": "address"
        }
      ],
      "stateMutability": "nonpayable",
      "type": "constructor"
    },
    {
      "inputs": [],
      "name": "purchase",
      "outputs": [],
      "stateMutability": "payable",
      "type": "function"
    },
    {
      "inputs": [],
      "name": "token",
      "outputs": [
        {
          "internalType": "contract ERC20",
          "name": "",
          "type": "address"
        }
      ],
      "stateMutability": "view",
      "type": "function"
    },
    {
      "inputs": [],
      "name": "tokenOwner",
      "outputs": [
        {
          "internalType": "address",
          "name": "",
          "type": "address"
        }
      ],
      "stateMutability": "view",
      "type": "function"
    }
  ],
  "bytecode": "0x6080604052670de0b6b3a764000060005534801561001c57600080fd5b506040516104d53803806104d583398101604081905261003b9161006e565b60028054336001600160a01b031991821617909155600180549091166001600160a01b039290921691909117905561009e565b60006020828403121561008057600080fd5b81516001600160a01b038116811461009757600080fd5b9392505050565b610428806100ad6000396000f3fe6080604052600436106100345760003560e01c806364edfbf014610039578063a3e6761014610043578063fc0c546a1461007f575b600080fd5b61004161009f565b005b34801561004f57600080fd5b50600254610063906001600160a01b031681565b6040516001600160a01b03909116815260200160405180910390f35b34801561008b57600080fd5b50600154610063906001600160a01b031681565b6000543410156100ed5760405162461bcd60e51b8152602060048201526015602482015274139bdd08195b9bdd59da081b5bdb995e481cd95b9d605a1b604482015260640160405180910390fd5b600080546100fb903461026e565b9050600080548261010c9190610290565b61011690346102ad565b6001546002546040805163313ce56760e01b815290519394506001600160a01b03928316936323b872dd93909216913391859163313ce567916004808201926020929091908290030181865afa158015610174573d6000803e3d6000fd5b505050506040513d601f19601f8201168201806040525081019061019891906102c0565b6101a390600a6103bd565b6101ad9087610290565b6040516001600160e01b031960e086901b1681526001600160a01b03938416600482015292909116602483015260448201526064016020604051808303816000875af1158015610201573d6000803e3d6000fd5b505050506040513d601f19601f8201168201806040525081019061022591906103d0565b50604051339082156108fc029083906000818181858888f19350505050158015610253573d6000803e3d6000fd5b505050565b634e487b7160e01b600052601160045260246000fd5b60008261028b57634e487b7160e01b600052601260045260246000fd5b500490565b80820281158282048414176102a7576102a7610258565b92915050565b818103818111156102a7576102a7610258565b6000602082840312156102d257600080fd5b5051919050565b600181815b808511156103145781600019048211156102fa576102fa610258565b8085161561030757918102915b93841c93908002906102de565b509250929050565b60008261032b575060016102a7565b81610338575060006102a7565b816001811461034e576002811461035857610374565b60019150506102a7565b60ff84111561036957610369610258565b50506001821b6102a7565b5060208310610133831016604e8410600b8410161715610397575081810a6102a7565b6103a183836102d9565b80600019048211156103b5576103b5610258565b029392505050565b60006103c9838361031c565b9392505050565b6000602082840312156103e257600080fd5b815180151581146103c957600080fdfea2646970667358221220b6f4e1332325e79bc748d5d48b3d6e48b1114246b9509429c26e8927cc0888ce64736f6c63430008180033",
  "linkReferences": {},
  "deployedLinkReferences": {}
}