{
  "_format": "hh-sol-artifact-1",
  "contractName": "SendWithdrawMoney",
  "sourceName": "contracts/SendMoneyExample.sol",
  "abi": [
    {
      "inputs": [],
      "name": "balanceRecieved",
      "outputs": [
        {
          "internalType": "uint256",
          "name": "",
          "type": "uint256"
        }
      ],
      "stateMutability": "view",
      "type": "function"
    },
    {
      "inputs": [],
      "name": "deposit",
      "outputs": [],
      "stateMutability": "payable",
      "type": "function"
    },
    {
      "inputs": [],
      "name": "getContractBalance",
      "outputs": [
        {
          "internalType": "uint256",
          "name": "",
          "type": "uint256"
        }
      ],
      "stateMutability": "view",
      "type": "function"
    },
    {
      "inputs": [
        {
          "internalType": "address payable",
          "name": "to",
          "type": "address"
        }
      ],
      "name": "withdrawAddress",
      "outputs": [],
      "stateMutability": "nonpayable",
      "type": "function"
    },
    {
      "inputs": [],
      "name": "withdrawAll",
      "outputs": [],
      "stateMutability": "nonpayable",
      "type": "function"
    }
  ],
  "bytecode": "0x608060405234801561001057600080fd5b506101b0806100206000396000f3fe60806040526004361061004a5760003560e01c80636f9fb98a1461004f578063853828b614610070578063d0e30db014610087578063d4c06b8d1461008f578063da16ff04146100a5575b600080fd5b34801561005b57600080fd5b50475b60405190815260200160405180910390f35b34801561007c57600080fd5b506100856100c5565b005b6100856100f8565b34801561009b57600080fd5b5061005e60005481565b3480156100b157600080fd5b506100856100c0366004610123565b610110565b33806108fc475b6040518115909202916000818181858888f193505050501580156100f4573d6000803e3d6000fd5b5050565b346000808282546101099190610153565b9091555050565b6001600160a01b0381166108fc476100cc565b60006020828403121561013557600080fd5b81356001600160a01b038116811461014c57600080fd5b9392505050565b8082018082111561017457634e487b7160e01b600052601160045260246000fd5b9291505056fea2646970667358221220f977c5efb44b30e6839a4a494b6c752a107f63571c876892c5e577ef6b5c07d964736f6c63430008180033",
  "linkReferences": {},
  "deployedLinkReferences": {}
}