{
  "_format": "hh-sol-artifact-1",
  "contractName": "BlockchainMessenger",
  "sourceName": "contracts/BlockchainMessanger.sol",
  "abi": [
    {
      "inputs": [],
      "stateMutability": "nonpayable",
      "type": "constructor"
    },
    {
      "inputs": [],
      "name": "cheangeCounter",
      "outputs": [
        {
          "internalType": "uint256",
          "name": "",
          "type": "uint256"
        }
      ],
      "stateMutability": "view",
      "type": "function"
    },
    {
      "inputs": [],
      "name": "message",
      "outputs": [
        {
          "internalType": "string",
          "name": "",
          "type": "string"
        }
      ],
      "stateMutability": "view",
      "type": "function"
    },
    {
      "inputs": [],
      "name": "owner",
      "outputs": [
        {
          "internalType": "address",
          "name": "",
          "type": "address"
        }
      ],
      "stateMutability": "view",
      "type": "function"
    },
    {
      "inputs": [
        {
          "internalType": "string",
          "name": "newMesagge",
          "type": "string"
        }
      ],
      "name": "updateMessage",
      "outputs": [],
      "stateMutability": "nonpayable",
      "type": "function"
    }
  ],
  "bytecode": "0x608060405234801561001057600080fd5b50600180546001600160a01b03191633179055610445806100326000396000f3fe608060405234801561001057600080fd5b506004361061004c5760003560e01c80631923be24146100515780631e61eb61146100665780638da5cb5b14610082578063e21f37ce146100ad575b600080fd5b61006461005f36600461019d565b6100c2565b005b61006f60005481565b6040519081526020015b60405180910390f35b600154610095906001600160a01b031681565b6040516001600160a01b039091168152602001610079565b6100b56100f9565b604051610079919061024e565b6001546001600160a01b031633036100f65760026100e08282610328565b506000805490806100f0836103e8565b91905055505b50565b600280546101069061029d565b80601f01602080910402602001604051908101604052809291908181526020018280546101329061029d565b801561017f5780601f106101545761010080835404028352916020019161017f565b820191906000526020600020905b81548152906001019060200180831161016257829003601f168201915b505050505081565b634e487b7160e01b600052604160045260246000fd5b6000602082840312156101af57600080fd5b813567ffffffffffffffff808211156101c757600080fd5b818401915084601f8301126101db57600080fd5b8135818111156101ed576101ed610187565b604051601f8201601f19908116603f0116810190838211818310171561021557610215610187565b8160405282815287602084870101111561022e57600080fd5b826020860160208301376000928101602001929092525095945050505050565b60006020808352835180602085015260005b8181101561027c57858101830151858201604001528201610260565b506000604082860101526040601f19601f8301168501019250505092915050565b600181811c908216806102b157607f821691505b6020821081036102d157634e487b7160e01b600052602260045260246000fd5b50919050565b601f821115610323576000816000526020600020601f850160051c810160208610156103005750805b601f850160051c820191505b8181101561031f5782815560010161030c565b5050505b505050565b815167ffffffffffffffff81111561034257610342610187565b61035681610350845461029d565b846102d7565b602080601f83116001811461038b57600084156103735750858301515b600019600386901b1c1916600185901b17855561031f565b600085815260208120601f198616915b828110156103ba5788860151825594840194600190910190840161039b565b50858210156103d85787850151600019600388901b60f8161c191681555b5050505050600190811b01905550565b60006001820161040857634e487b7160e01b600052601160045260246000fd5b506001019056fea2646970667358221220726a3a75dc159304c17719dbe441238ac20257b9925045cfd0af8506be22f10564736f6c63430008180033",
  "linkReferences": {},
  "deployedLinkReferences": {}
}