{"contracts/TokenTesting.sol":{"TokenSale":{"abi":[{"inputs":[{"internalType":"address","name":"_token","type":"address"}],"stateMutability":"nonpayable","type":"constructor"},{"inputs":[],"name":"purchase","outputs":[],"stateMutability":"payable","type":"function"},{"inputs":[],"name":"token","outputs":[{"internalType":"contract ERC20","name":"","type":"address"}],"stateMutability":"view","type":"function"},{"inputs":[],"name":"tokenOwner","outputs":[{"internalType":"address","name":"","type":"address"}],"stateMutability":"view","type":"function"}],"evm":{"bytecode":{"linkReferences":{},"object":"6080604052670de0b6b3a764000060005534801561001c57600080fd5b506040516104d53803806104d583398101604081905261003b9161006e565b60028054336001600160a01b031991821617909155600180549091166001600160a01b039290921691909117905561009e565b60006020828403121561008057600080fd5b81516001600160a01b038116811461009757600080fd5b9392505050565b610428806100ad6000396000f3fe6080604052600436106100345760003560e01c806364edfbf014610039578063a3e6761014610043578063fc0c546a1461007f575b600080fd5b61004161009f565b005b34801561004f57600080fd5b50600254610063906001600160a01b031681565b6040516001600160a01b03909116815260200160405180910390f35b34801561008b57600080fd5b50600154610063906001600160a01b031681565b6000543410156100ed5760405162461bcd60e51b8152602060048201526015602482015274139bdd08195b9bdd59da081b5bdb995e481cd95b9d605a1b604482015260640160405180910390fd5b600080546100fb903461026e565b9050600080548261010c9190610290565b61011690346102ad565b6001546002546040805163313ce56760e01b815290519394506001600160a01b03928316936323b872dd93909216913391859163313ce567916004808201926020929091908290030181865afa158015610174573d6000803e3d6000fd5b505050506040513d601f19601f8201168201806040525081019061019891906102c0565b6101a390600a6103bd565b6101ad9087610290565b6040516001600160e01b031960e086901b1681526001600160a01b03938416600482015292909116602483015260448201526064016020604051808303816000875af1158015610201573d6000803e3d6000fd5b505050506040513d601f19601f8201168201806040525081019061022591906103d0565b50604051339082156108fc029083906000818181858888f19350505050158015610253573d6000803e3d6000fd5b505050565b634e487b7160e01b600052601160045260246000fd5b60008261028b57634e487b7160e01b600052601260045260246000fd5b500490565b80820281158282048414176102a7576102a7610258565b92915050565b818103818111156102a7576102a7610258565b6000602082840312156102d257600080fd5b5051919050565b600181815b808511156103145781600019048211156102fa576102fa610258565b8085161561030757918102915b93841c93908002906102de565b509250929050565b60008261032b575060016102a7565b81610338575060006102a7565b816001811461034e576002811461035857610374565b60019150506102a7565b60ff84111561036957610369610258565b50506001821b6102a7565b5060208310610133831016604e8410600b8410161715610397575081810a6102a7565b6103a183836102d9565b80600019048211156103b5576103b5610258565b029392505050565b60006103c9838361031c565b9392505050565b6000602082840312156103e257600080fd5b815180151581146103c957600080fdfea2646970667358221220b6f4e1332325e79bc748d5d48b3d6e48b1114246b9509429c26e8927cc0888ce64736f6c63430008180033","opcodes":"PUSH1 0x80 PUSH1 0x40 MSTORE PUSH8 0xDE0B6B3A7640000 PUSH1 0x0 SSTORE CALLVALUE DUP1 ISZERO PUSH2 0x1C JUMPI PUSH1 0x0 DUP1 REVERT JUMPDEST POP PUSH1 0x40 MLOAD PUSH2 0x4D5 CODESIZE SUB DUP1 PUSH2 0x4D5 DUP4 CODECOPY DUP2 ADD PUSH1 0x40 DUP2 SWAP1 MSTORE PUSH2 0x3B SWAP2 PUSH2 0x6E JUMP JUMPDEST PUSH1 0x2 DUP1 SLOAD CALLER PUSH1 0x1 PUSH1 0x1 PUSH1 0xA0 SHL SUB NOT SWAP2 DUP3 AND OR SWAP1 SWAP2 SSTORE PUSH1 0x1 DUP1 SLOAD SWAP1 SWAP2 AND PUSH1 0x1 PUSH1 0x1 PUSH1 0xA0 SHL SUB SWAP3 SWAP1 SWAP3 AND SWAP2 SWAP1 SWAP2 OR SWAP1 SSTORE PUSH2 0x9E JUMP JUMPDEST PUSH1 0x0 PUSH1 0x20 DUP3 DUP5 SUB SLT ISZERO PUSH2 0x80 JUMPI PUSH1 0x0 DUP1 REVERT JUMPDEST DUP2 MLOAD PUSH1 0x1 PUSH1 0x1 PUSH1 0xA0 SHL SUB DUP2 AND DUP2 EQ PUSH2 0x97 JUMPI PUSH1 0x0 DUP1 REVERT JUMPDEST SWAP4 SWAP3 POP POP POP JUMP JUMPDEST PUSH2 0x428 DUP1 PUSH2 0xAD PUSH1 0x0 CODECOPY PUSH1 0x0 RETURN INVALID PUSH1 0x80 PUSH1 0x40 MSTORE PUSH1 0x4 CALLDATASIZE LT PUSH2 0x34 JUMPI PUSH1 0x0 CALLDATALOAD PUSH1 0xE0 SHR DUP1 PUSH4 0x64EDFBF0 EQ PUSH2 0x39 JUMPI DUP1 PUSH4 0xA3E67610 EQ PUSH2 0x43 JUMPI DUP1 PUSH4 0xFC0C546A EQ PUSH2 0x7F JUMPI JUMPDEST PUSH1 0x0 DUP1 REVERT JUMPDEST PUSH2 0x41 PUSH2 0x9F JUMP JUMPDEST STOP JUMPDEST CALLVALUE DUP1 ISZERO PUSH2 0x4F JUMPI PUSH1 0x0 DUP1 REVERT JUMPDEST POP PUSH1 0x2 SLOAD PUSH2 0x63 SWAP1 PUSH1 0x1 PUSH1 0x1 PUSH1 0xA0 SHL SUB AND DUP2 JUMP JUMPDEST PUSH1 0x40 MLOAD PUSH1 0x1 PUSH1 0x1 PUSH1 0xA0 SHL SUB SWAP1 SWAP2 AND DUP2 MSTORE PUSH1 0x20 ADD PUSH1 0x40 MLOAD DUP1 SWAP2 SUB SWAP1 RETURN JUMPDEST CALLVALUE DUP1 ISZERO PUSH2 0x8B JUMPI PUSH1 0x0 DUP1 REVERT JUMPDEST POP PUSH1 0x1 SLOAD PUSH2 0x63 SWAP1 PUSH1 0x1 PUSH1 0x1 PUSH1 0xA0 SHL SUB AND DUP2 JUMP JUMPDEST PUSH1 0x0 SLOAD CALLVALUE LT ISZERO PUSH2 0xED JUMPI PUSH1 0x40 MLOAD PUSH3 0x461BCD PUSH1 0xE5 SHL DUP2 MSTORE PUSH1 0x20 PUSH1 0x4 DUP3 ADD MSTORE PUSH1 0x15 PUSH1 0x24 DUP3 ADD MSTORE PUSH21 0x139BDD08195B9BDD59DA081B5BDB995E481CD95B9D PUSH1 0x5A SHL PUSH1 0x44 DUP3 ADD MSTORE PUSH1 0x64 ADD PUSH1 0x40 MLOAD DUP1 SWAP2 SUB SWAP1 REVERT JUMPDEST PUSH1 0x0 DUP1 SLOAD PUSH2 0xFB SWAP1 CALLVALUE PUSH2 0x26E JUMP JUMPDEST SWAP1 POP PUSH1 0x0 DUP1 SLOAD DUP3 PUSH2 0x10C SWAP2 SWAP1 PUSH2 0x290 JUMP JUMPDEST PUSH2 0x116 SWAP1 CALLVALUE PUSH2 0x2AD JUMP JUMPDEST PUSH1 0x1 SLOAD PUSH1 0x2 SLOAD PUSH1 0x40 DUP1 MLOAD PUSH4 0x313CE567 PUSH1 0xE0 SHL DUP2 MSTORE SWAP1 MLOAD SWAP4 SWAP5 POP PUSH1 0x1 PUSH1 0x1 PUSH1 0xA0 SHL SUB SWAP3 DUP4 AND SWAP4 PUSH4 0x23B872DD SWAP4 SWAP1 SWAP3 AND SWAP2 CALLER SWAP2 DUP6 SWAP2 PUSH4 0x313CE567 SWAP2 PUSH1 0x4 DUP1 DUP3 ADD SWAP3 PUSH1 0x20 SWAP3 SWAP1 SWAP2 SWAP1 DUP3 SWAP1 SUB ADD DUP2 DUP7 GAS STATICCALL ISZERO DUP1 ISZERO PUSH2 0x174 JUMPI RETURNDATASIZE PUSH1 0x0 DUP1 RETURNDATACOPY RETURNDATASIZE PUSH1 0x0 REVERT JUMPDEST POP POP POP POP PUSH1 0x40 MLOAD RETURNDATASIZE PUSH1 0x1F NOT PUSH1 0x1F DUP3 ADD AND DUP3 ADD DUP1 PUSH1 0x40 MSTORE POP DUP2 ADD SWAP1 PUSH2 0x198 SWAP2 SWAP1 PUSH2 0x2C0 JUMP JUMPDEST PUSH2 0x1A3 SWAP1 PUSH1 0xA PUSH2 0x3BD JUMP JUMPDEST PUSH2 0x1AD SWAP1 DUP8 PUSH2 0x290 JUMP JUMPDEST PUSH1 0x40 MLOAD PUSH1 0x1 PUSH1 0x1 PUSH1 0xE0 SHL SUB NOT PUSH1 0xE0 DUP7 SWAP1 SHL AND DUP2 MSTORE PUSH1 0x1 PUSH1 0x1 PUSH1 0xA0 SHL SUB SWAP4 DUP5 AND PUSH1 0x4 DUP3 ADD MSTORE SWAP3 SWAP1 SWAP2 AND PUSH1 0x24 DUP4 ADD MSTORE PUSH1 0x44 DUP3 ADD MSTORE PUSH1 0x64 ADD PUSH1 0x20 PUSH1 0x40 MLOAD DUP1 DUP4 SUB DUP2 PUSH1 0x0 DUP8 GAS CALL ISZERO DUP1 ISZERO PUSH2 0x201 JUMPI RETURNDATASIZE PUSH1 0x0 DUP1 RETURNDATACOPY RETURNDATASIZE PUSH1 0x0 REVERT JUMPDEST POP POP POP POP PUSH1 0x40 MLOAD RETURNDATASIZE PUSH1 0x1F NOT PUSH1 0x1F DUP3 ADD AND DUP3 ADD DUP1 PUSH1 0x40 MSTORE POP DUP2 ADD SWAP1 PUSH2 0x225 SWAP2 SWAP1 PUSH2 0x3D0 JUMP JUMPDEST POP PUSH1 0x40 MLOAD CALLER SWAP1 DUP3 ISZERO PUSH2 0x8FC MUL SWAP1 DUP4 SWAP1 PUSH1 0x0 DUP2 DUP2 DUP2 DUP6 DUP9 DUP9 CALL SWAP4 POP POP POP POP ISZERO DUP1 ISZERO PUSH2 0x253 JUMPI RETURNDATASIZE PUSH1 0x0 DUP1 RETURNDATACOPY RETURNDATASIZE PUSH1 0x0 REVERT JUMPDEST POP POP POP JUMP JUMPDEST PUSH4 0x4E487B71 PUSH1 0xE0 SHL PUSH1 0x0 MSTORE PUSH1 0x11 PUSH1 0x4 MSTORE PUSH1 0x24 PUSH1 0x0 REVERT JUMPDEST PUSH1 0x0 DUP3 PUSH2 0x28B JUMPI PUSH4 0x4E487B71 PUSH1 0xE0 SHL PUSH1 0x0 MSTORE PUSH1 0x12 PUSH1 0x4 MSTORE PUSH1 0x24 PUSH1 0x0 REVERT JUMPDEST POP DIV SWAP1 JUMP JUMPDEST DUP1 DUP3 MUL DUP2 ISZERO DUP3 DUP3 DIV DUP5 EQ OR PUSH2 0x2A7 JUMPI PUSH2 0x2A7 PUSH2 0x258 JUMP JUMPDEST SWAP3 SWAP2 POP POP JUMP JUMPDEST DUP2 DUP2 SUB DUP2 DUP2 GT ISZERO PUSH2 0x2A7 JUMPI PUSH2 0x2A7 PUSH2 0x258 JUMP JUMPDEST PUSH1 0x0 PUSH1 0x20 DUP3 DUP5 SUB SLT ISZERO PUSH2 0x2D2 JUMPI PUSH1 0x0 DUP1 REVERT JUMPDEST POP MLOAD SWAP2 SWAP1 POP JUMP JUMPDEST PUSH1 0x1 DUP2 DUP2 JUMPDEST DUP1 DUP6 GT ISZERO PUSH2 0x314 JUMPI DUP2 PUSH1 0x0 NOT DIV DUP3 GT ISZERO PUSH2 0x2FA JUMPI PUSH2 0x2FA PUSH2 0x258 JUMP JUMPDEST DUP1 DUP6 AND ISZERO PUSH2 0x307 JUMPI SWAP2 DUP2 MUL SWAP2 JUMPDEST SWAP4 DUP5 SHR SWAP4 SWAP1 DUP1 MUL SWAP1 PUSH2 0x2DE JUMP JUMPDEST POP SWAP3 POP SWAP3 SWAP1 POP JUMP JUMPDEST PUSH1 0x0 DUP3 PUSH2 0x32B JUMPI POP PUSH1 0x1 PUSH2 0x2A7 JUMP JUMPDEST DUP2 PUSH2 0x338 JUMPI POP PUSH1 0x0 PUSH2 0x2A7 JUMP JUMPDEST DUP2 PUSH1 0x1 DUP2 EQ PUSH2 0x34E JUMPI PUSH1 0x2 DUP2 EQ PUSH2 0x358 JUMPI PUSH2 0x374 JUMP JUMPDEST PUSH1 0x1 SWAP2 POP POP PUSH2 0x2A7 JUMP JUMPDEST PUSH1 0xFF DUP5 GT ISZERO PUSH2 0x369 JUMPI PUSH2 0x369 PUSH2 0x258 JUMP JUMPDEST POP POP PUSH1 0x1 DUP3 SHL PUSH2 0x2A7 JUMP JUMPDEST POP PUSH1 0x20 DUP4 LT PUSH2 0x133 DUP4 LT AND PUSH1 0x4E DUP5 LT PUSH1 0xB DUP5 LT AND OR ISZERO PUSH2 0x397 JUMPI POP DUP2 DUP2 EXP PUSH2 0x2A7 JUMP JUMPDEST PUSH2 0x3A1 DUP4 DUP4 PUSH2 0x2D9 JUMP JUMPDEST DUP1 PUSH1 0x0 NOT DIV DUP3 GT ISZERO PUSH2 0x3B5 JUMPI PUSH2 0x3B5 PUSH2 0x258 JUMP JUMPDEST MUL SWAP4 SWAP3 POP POP POP JUMP JUMPDEST PUSH1 0x0 PUSH2 0x3C9 DUP4 DUP4 PUSH2 0x31C JUMP JUMPDEST SWAP4 SWAP3 POP POP POP JUMP JUMPDEST PUSH1 0x0 PUSH1 0x20 DUP3 DUP5 SUB SLT ISZERO PUSH2 0x3E2 JUMPI PUSH1 0x0 DUP1 REVERT JUMPDEST DUP2 MLOAD DUP1 ISZERO ISZERO DUP2 EQ PUSH2 0x3C9 JUMPI PUSH1 0x0 DUP1 REVERT INVALID LOG2 PUSH5 0x6970667358 0x22 SLT KECCAK256 0xB6 DELEGATECALL 0xE1 CALLER 0x23 0x25 0xE7 SWAP12 0xC7 BASEFEE 0xD5 0xD4 DUP12 RETURNDATASIZE PUSH15 0x48B1114246B9509429C26E8927CC08 DUP9 0xCE PUSH5 0x736F6C6343 STOP ADDMOD XOR STOP CALLER "},"methodIdentifiers":{"purchase()":"64edfbf0","token()":"fc0c546a","tokenOwner()":"a3e67610"}}}}}