{"contracts/SharedWallet.sol":{"SharedWallet":{"abi":[{"inputs":[],"stateMutability":"nonpayable","type":"constructor"},{"anonymous":false,"inputs":[{"indexed":true,"internalType":"address","name":"changed","type":"address"},{"indexed":true,"internalType":"address","name":"gotChanged","type":"address"},{"indexed":false,"internalType":"bool","name":"setTo","type":"bool"}],"name":"allowanceChanged","type":"event"},{"anonymous":false,"inputs":[{"indexed":true,"internalType":"address","name":"from","type":"address"},{"indexed":false,"internalType":"uint256","name":"amount","type":"uint256"}],"name":"depositSent","type":"event"},{"anonymous":false,"inputs":[{"indexed":true,"internalType":"address","name":"from","type":"address"},{"indexed":true,"internalType":"address","name":"to","type":"address"},{"indexed":false,"internalType":"uint256","name":"amount","type":"uint256"}],"name":"withdrawalSent","type":"event"},{"inputs":[{"internalType":"address","name":"","type":"address"}],"name":"accounts","outputs":[{"internalType":"uint256","name":"totalMoney","type":"uint256"},{"internalType":"uint256","name":"numOfDeposits","type":"uint256"},{"internalType":"uint256","name":"numOfWithdrawals","type":"uint256"},{"internalType":"uint256","name":"numPeopleAllowed","type":"uint256"}],"stateMutability":"view","type":"function"},{"inputs":[{"internalType":"uint256","name":"which_","type":"uint256"}],"name":"checkAlloweds","outputs":[{"internalType":"address","name":"","type":"address"},{"internalType":"bool","name":"","type":"bool"}],"stateMutability":"view","type":"function"},{"inputs":[],"name":"depositMoney","outputs":[],"stateMutability":"payable","type":"function"},{"inputs":[{"internalType":"address","name":"from_","type":"address"}],"name":"getBalance","outputs":[{"internalType":"uint256","name":"","type":"uint256"}],"stateMutability":"view","type":"function"},{"inputs":[],"name":"owner","outputs":[{"internalType":"address","name":"","type":"address"}],"stateMutability":"view","type":"function"},{"inputs":[{"internalType":"address","name":"address_","type":"address"}],"name":"setAllowed","outputs":[],"stateMutability":"nonpayable","type":"function"},{"inputs":[{"internalType":"address","name":"address_","type":"address"}],"name":"setNotAllowed","outputs":[],"stateMutability":"nonpayable","type":"function"},{"inputs":[{"internalType":"address payable","name":"to_","type":"address"},{"internalType":"uint256","name":"amount_","type":"uint256"}],"name":"withdrawMoney","outputs":[],"stateMutability":"nonpayable","type":"function"},{"stateMutability":"payable","type":"receive"}],"evm":{"bytecode":{"linkReferences":{},"object":"608060405234801561001057600080fd5b50600180546001600160a01b0319163317905561099b806100326000396000f3fe60806040526004361061007f5760003560e01c80638da5cb5b1161004e5780638da5cb5b14610199578063c0e79a11146101d1578063f274c897146101f1578063f8b2cb4f1461021157600080fd5b806316c05aa21461008b578063360470151461009557806341ac7eb8146100b55780635e5c06e21461013757600080fd5b3661008657005b600080fd5b610093610255565b005b3480156100a157600080fd5b506100936100b0366004610854565b6103a2565b3480156100c157600080fd5b506101136100d0366004610878565b6001546001600160a01b0390811660009081526020818152604080832094835260068501825280832054909316808352600790940190522054909160ff90911690565b604080516001600160a01b0390931683529015156020830152015b60405180910390f35b34801561014357600080fd5b50610179610152366004610854565b60006020819052908152604090208054600182015460028301546003909301549192909184565b60408051948552602085019390935291830152606082015260800161012e565b3480156101a557600080fd5b506001546101b9906001600160a01b031681565b6040516001600160a01b03909116815260200161012e565b3480156101dd57600080fd5b506100936101ec366004610854565b6104fa565b3480156101fd57600080fd5b5061009361020c366004610891565b61061e565b34801561021d57600080fd5b5061024761022c366004610854565b6001600160a01b031660009081526020819052604090205490565b60405190815260200161012e565b6001546001600160a01b03163314806102985750600180546001600160a01b031660009081526020818152604080832033845260070190915290205460ff161515145b6102bd5760405162461bcd60e51b81526004016102b4906108bd565b60405180910390fd5b6001546001600160a01b03166000908152602081905260408120805434928392916102e9908490610920565b9091555050604080518082018252600080825260209182018190528251808401845284815242818401908152600180546001600160a01b039081168552848652868520808301548652600401865286852084518155925192820192909255805490911683529282905292812090910180549161036483610939565b909155505060405134815233907fa6c464a951f5ad7a3adebbc18d08d7227b11ec77ef056ce49dc6e6e2bc0affea9060200160405180910390a25050565b6001546001600160a01b03163314806103e55750600180546001600160a01b031660009081526020818152604080832033845260070190915290205460ff161515145b6104015760405162461bcd60e51b81526004016102b4906108bd565b600180546001600160a01b03908116600090815260208181526040808320938616835260079093019052205460ff1615151461048a5760405162461bcd60e51b815260206004820152602260248201527f5468697320706572736f6e20697320616c7265616479206e6f7420616c6c6f77604482015261195960f21b60648201526084016102b4565b600180546001600160a01b0390811660009081526020818152604080832086851680855260079091018352818420805460ff1916905594549051928352909216917f28907a532a4b0d537e93c1aef854e813c1a42238572b07edc1b34c3f80e5a46b91015b60405180910390a350565b6001546001600160a01b0316331461054c5760405162461bcd60e51b81526020600482015260156024820152742cb7ba9030b932903737ba103a34329037bbb732b960591b60448201526064016102b4565b600180546001600160a01b0390811660009081526020818152604080832060038082015485526006909101835281842080546001600160a01b031916888716179055945490931682528190529081209091018054916105aa83610939565b9091555050600180546001600160a01b039081166000908152602081815260408083208685168085526007909101835292819020805460ff19168617905584549051948552919391909216917f28907a532a4b0d537e93c1aef854e813c1a42238572b07edc1b34c3f80e5a46b91016104ef565b6001546001600160a01b03163314806106615750600180546001600160a01b031660009081526020818152604080832033845260070190915290205460ff161515145b61067d5760405162461bcd60e51b81526004016102b4906108bd565b6001546001600160a01b03166000908152602081905260409020548111156106e75760405162461bcd60e51b815260206004820152601a60248201527f596f75722062616c616e6365206973206e6f7420656e6f75676800000000000060448201526064016102b4565b6001546001600160a01b031660009081526020819052604081208054839290610711908490610952565b9091555050604080518082018252600080825260209182018190528251808401845284815242818401908152600180546001600160a01b0390811685528486528685206002808201548752600590910187528786208551815593519383019390935590541683529282905292812090910180549161078e83610939565b90915550506040516001600160a01b0384169083156108fc029084906000818181858888f193505050501580156107c9573d6000803e3d6000fd5b506001600160a01b038316600090815260208190526040812080548492906107f2908490610920565b90915550506040518281526001600160a01b0384169033907f9afb1a228f187030aa218b66cb89a451fd8d475d506b8e7771f41faf5aeb29769060200160405180910390a3505050565b6001600160a01b038116811461085157600080fd5b50565b60006020828403121561086657600080fd5b81356108718161083c565b9392505050565b60006020828403121561088a57600080fd5b5035919050565b600080604083850312156108a457600080fd5b82356108af8161083c565b946020939093013593505050565b6020808252602d908201527f596f7520617265206e6f7420746865206f776e657220616e6420796f7520617260408201526c19481b9bdd08185b1b1bddd959609a1b606082015260800190565b634e487b7160e01b600052601160045260246000fd5b808201808211156109335761093361090a565b92915050565b60006001820161094b5761094b61090a565b5060010190565b818103818111156109335761093361090a56fea2646970667358221220bf1ee04c7748332be3a56e76b57bacaaa6e22a522495e2dc1c05fddb24888edf64736f6c63430008180033","opcodes":"PUSH1 0x80 PUSH1 0x40 MSTORE CALLVALUE DUP1 ISZERO PUSH2 0x10 JUMPI PUSH1 0x0 DUP1 REVERT JUMPDEST POP PUSH1 0x1 DUP1 SLOAD PUSH1 0x1 PUSH1 0x1 PUSH1 0xA0 SHL SUB NOT AND CALLER OR SWAP1 SSTORE PUSH2 0x99B DUP1 PUSH2 0x32 PUSH1 0x0 CODECOPY PUSH1 0x0 RETURN INVALID PUSH1 0x80 PUSH1 0x40 MSTORE PUSH1 0x4 CALLDATASIZE LT PUSH2 0x7F JUMPI PUSH1 0x0 CALLDATALOAD PUSH1 0xE0 SHR DUP1 PUSH4 0x8DA5CB5B GT PUSH2 0x4E JUMPI DUP1 PUSH4 0x8DA5CB5B EQ PUSH2 0x199 JUMPI DUP1 PUSH4 0xC0E79A11 EQ PUSH2 0x1D1 JUMPI DUP1 PUSH4 0xF274C897 EQ PUSH2 0x1F1 JUMPI DUP1 PUSH4 0xF8B2CB4F EQ PUSH2 0x211 JUMPI PUSH1 0x0 DUP1 REVERT JUMPDEST DUP1 PUSH4 0x16C05AA2 EQ PUSH2 0x8B JUMPI DUP1 PUSH4 0x36047015 EQ PUSH2 0x95 JUMPI DUP1 PUSH4 0x41AC7EB8 EQ PUSH2 0xB5 JUMPI DUP1 PUSH4 0x5E5C06E2 EQ PUSH2 0x137 JUMPI PUSH1 0x0 DUP1 REVERT JUMPDEST CALLDATASIZE PUSH2 0x86 JUMPI STOP JUMPDEST PUSH1 0x0 DUP1 REVERT JUMPDEST PUSH2 0x93 PUSH2 0x255 JUMP JUMPDEST STOP JUMPDEST CALLVALUE DUP1 ISZERO PUSH2 0xA1 JUMPI PUSH1 0x0 DUP1 REVERT JUMPDEST POP PUSH2 0x93 PUSH2 0xB0 CALLDATASIZE PUSH1 0x4 PUSH2 0x854 JUMP JUMPDEST PUSH2 0x3A2 JUMP JUMPDEST CALLVALUE DUP1 ISZERO PUSH2 0xC1 JUMPI PUSH1 0x0 DUP1 REVERT JUMPDEST POP PUSH2 0x113 PUSH2 0xD0 CALLDATASIZE PUSH1 0x4 PUSH2 0x878 JUMP JUMPDEST PUSH1 0x1 SLOAD PUSH1 0x1 PUSH1 0x1 PUSH1 0xA0 SHL SUB SWAP1 DUP2 AND PUSH1 0x0 SWAP1 DUP2 MSTORE PUSH1 0x20 DUP2 DUP2 MSTORE PUSH1 0x40 DUP1 DUP4 KECCAK256 SWAP5 DUP4 MSTORE PUSH1 0x6 DUP6 ADD DUP3 MSTORE DUP1 DUP4 KECCAK256 SLOAD SWAP1 SWAP4 AND DUP1 DUP4 MSTORE PUSH1 0x7 SWAP1 SWAP5 ADD SWAP1 MSTORE KECCAK256 SLOAD SWAP1 SWAP2 PUSH1 0xFF SWAP1 SWAP2 AND SWAP1 JUMP JUMPDEST PUSH1 0x40 DUP1 MLOAD PUSH1 0x1 PUSH1 0x1 PUSH1 0xA0 SHL SUB SWAP1 SWAP4 AND DUP4 MSTORE SWAP1 ISZERO ISZERO PUSH1 0x20 DUP4 ADD MSTORE ADD JUMPDEST PUSH1 0x40 MLOAD DUP1 SWAP2 SUB SWAP1 RETURN JUMPDEST CALLVALUE DUP1 ISZERO PUSH2 0x143 JUMPI PUSH1 0x0 DUP1 REVERT JUMPDEST POP PUSH2 0x179 PUSH2 0x152 CALLDATASIZE PUSH1 0x4 PUSH2 0x854 JUMP JUMPDEST PUSH1 0x0 PUSH1 0x20 DUP2 SWAP1 MSTORE SWAP1 DUP2 MSTORE PUSH1 0x40 SWAP1 KECCAK256 DUP1 SLOAD PUSH1 0x1 DUP3 ADD SLOAD PUSH1 0x2 DUP4 ADD SLOAD PUSH1 0x3 SWAP1 SWAP4 ADD SLOAD SWAP2 SWAP3 SWAP1 SWAP2 DUP5 JUMP JUMPDEST PUSH1 0x40 DUP1 MLOAD SWAP5 DUP6 MSTORE PUSH1 0x20 DUP6 ADD SWAP4 SWAP1 SWAP4 MSTORE SWAP2 DUP4 ADD MSTORE PUSH1 0x60 DUP3 ADD MSTORE PUSH1 0x80 ADD PUSH2 0x12E JUMP JUMPDEST CALLVALUE DUP1 ISZERO PUSH2 0x1A5 JUMPI PUSH1 0x0 DUP1 REVERT JUMPDEST POP PUSH1 0x1 SLOAD PUSH2 0x1B9 SWAP1 PUSH1 0x1 PUSH1 0x1 PUSH1 0xA0 SHL SUB AND DUP2 JUMP JUMPDEST PUSH1 0x40 MLOAD PUSH1 0x1 PUSH1 0x1 PUSH1 0xA0 SHL SUB SWAP1 SWAP2 AND DUP2 MSTORE PUSH1 0x20 ADD PUSH2 0x12E JUMP JUMPDEST CALLVALUE DUP1 ISZERO PUSH2 0x1DD JUMPI PUSH1 0x0 DUP1 REVERT JUMPDEST POP PUSH2 0x93 PUSH2 0x1EC CALLDATASIZE PUSH1 0x4 PUSH2 0x854 JUMP JUMPDEST PUSH2 0x4FA JUMP JUMPDEST CALLVALUE DUP1 ISZERO PUSH2 0x1FD JUMPI PUSH1 0x0 DUP1 REVERT JUMPDEST POP PUSH2 0x93 PUSH2 0x20C CALLDATASIZE PUSH1 0x4 PUSH2 0x891 JUMP JUMPDEST PUSH2 0x61E JUMP JUMPDEST CALLVALUE DUP1 ISZERO PUSH2 0x21D JUMPI PUSH1 0x0 DUP1 REVERT JUMPDEST POP PUSH2 0x247 PUSH2 0x22C CALLDATASIZE PUSH1 0x4 PUSH2 0x854 JUMP JUMPDEST PUSH1 0x1 PUSH1 0x1 PUSH1 0xA0 SHL SUB AND PUSH1 0x0 SWAP1 DUP2 MSTORE PUSH1 0x20 DUP2 SWAP1 MSTORE PUSH1 0x40 SWAP1 KECCAK256 SLOAD SWAP1 JUMP JUMPDEST PUSH1 0x40 MLOAD SWAP1 DUP2 MSTORE PUSH1 0x20 ADD PUSH2 0x12E JUMP JUMPDEST PUSH1 0x1 SLOAD PUSH1 0x1 PUSH1 0x1 PUSH1 0xA0 SHL SUB AND CALLER EQ DUP1 PUSH2 0x298 JUMPI POP PUSH1 0x1 DUP1 SLOAD PUSH1 0x1 PUSH1 0x1 PUSH1 0xA0 SHL SUB AND PUSH1 0x0 SWAP1 DUP2 MSTORE PUSH1 0x20 DUP2 DUP2 MSTORE PUSH1 0x40 DUP1 DUP4 KECCAK256 CALLER DUP5 MSTORE PUSH1 0x7 ADD SWAP1 SWAP2 MSTORE SWAP1 KECCAK256 SLOAD PUSH1 0xFF AND ISZERO ISZERO EQ JUMPDEST PUSH2 0x2BD JUMPI PUSH1 0x40 MLOAD PUSH3 0x461BCD PUSH1 0xE5 SHL DUP2 MSTORE PUSH1 0x4 ADD PUSH2 0x2B4 SWAP1 PUSH2 0x8BD JUMP JUMPDEST PUSH1 0x40 MLOAD DUP1 SWAP2 SUB SWAP1 REVERT JUMPDEST PUSH1 0x1 SLOAD PUSH1 0x1 PUSH1 0x1 PUSH1 0xA0 SHL SUB AND PUSH1 0x0 SWAP1 DUP2 MSTORE PUSH1 0x20 DUP2 SWAP1 MSTORE PUSH1 0x40 DUP2 KECCAK256 DUP1 SLOAD CALLVALUE SWAP3 DUP4 SWAP3 SWAP2 PUSH2 0x2E9 SWAP1 DUP5 SWAP1 PUSH2 0x920 JUMP JUMPDEST SWAP1 SWAP2 SSTORE POP POP PUSH1 0x40 DUP1 MLOAD DUP1 DUP3 ADD DUP3 MSTORE PUSH1 0x0 DUP1 DUP3 MSTORE PUSH1 0x20 SWAP2 DUP3 ADD DUP2 SWAP1 MSTORE DUP3 MLOAD DUP1 DUP5 ADD DUP5 MSTORE DUP5 DUP2 MSTORE TIMESTAMP DUP2 DUP5 ADD SWAP1 DUP2 MSTORE PUSH1 0x1 DUP1 SLOAD PUSH1 0x1 PUSH1 0x1 PUSH1 0xA0 SHL SUB SWAP1 DUP2 AND DUP6 MSTORE DUP5 DUP7 MSTORE DUP7 DUP6 KECCAK256 DUP1 DUP4 ADD SLOAD DUP7 MSTORE PUSH1 0x4 ADD DUP7 MSTORE DUP7 DUP6 KECCAK256 DUP5 MLOAD DUP2 SSTORE SWAP3 MLOAD SWAP3 DUP3 ADD SWAP3 SWAP1 SWAP3 SSTORE DUP1 SLOAD SWAP1 SWAP2 AND DUP4 MSTORE SWAP3 DUP3 SWAP1 MSTORE SWAP3 DUP2 KECCAK256 SWAP1 SWAP2 ADD DUP1 SLOAD SWAP2 PUSH2 0x364 DUP4 PUSH2 0x939 JUMP JUMPDEST SWAP1 SWAP2 SSTORE POP POP PUSH1 0x40 MLOAD CALLVALUE DUP2 MSTORE CALLER SWAP1 PUSH32 0xA6C464A951F5AD7A3ADEBBC18D08D7227B11EC77EF056CE49DC6E6E2BC0AFFEA SWAP1 PUSH1 0x20 ADD PUSH1 0x40 MLOAD DUP1 SWAP2 SUB SWAP1 LOG2 POP POP JUMP JUMPDEST PUSH1 0x1 SLOAD PUSH1 0x1 PUSH1 0x1 PUSH1 0xA0 SHL SUB AND CALLER EQ DUP1 PUSH2 0x3E5 JUMPI POP PUSH1 0x1 DUP1 SLOAD PUSH1 0x1 PUSH1 0x1 PUSH1 0xA0 SHL SUB AND PUSH1 0x0 SWAP1 DUP2 MSTORE PUSH1 0x20 DUP2 DUP2 MSTORE PUSH1 0x40 DUP1 DUP4 KECCAK256 CALLER DUP5 MSTORE PUSH1 0x7 ADD SWAP1 SWAP2 MSTORE SWAP1 KECCAK256 SLOAD PUSH1 0xFF AND ISZERO ISZERO EQ JUMPDEST PUSH2 0x401 JUMPI PUSH1 0x40 MLOAD PUSH3 0x461BCD PUSH1 0xE5 SHL DUP2 MSTORE PUSH1 0x4 ADD PUSH2 0x2B4 SWAP1 PUSH2 0x8BD JUMP JUMPDEST PUSH1 0x1 DUP1 SLOAD PUSH1 0x1 PUSH1 0x1 PUSH1 0xA0 SHL SUB SWAP1 DUP2 AND PUSH1 0x0 SWAP1 DUP2 MSTORE PUSH1 0x20 DUP2 DUP2 MSTORE PUSH1 0x40 DUP1 DUP4 KECCAK256 SWAP4 DUP7 AND DUP4 MSTORE PUSH1 0x7 SWAP1 SWAP4 ADD SWAP1 MSTORE KECCAK256 SLOAD PUSH1 0xFF AND ISZERO ISZERO EQ PUSH2 0x48A JUMPI PUSH1 0x40 MLOAD PUSH3 0x461BCD PUSH1 0xE5 SHL DUP2 MSTORE PUSH1 0x20 PUSH1 0x4 DUP3 ADD MSTORE PUSH1 0x22 PUSH1 0x24 DUP3 ADD MSTORE PUSH32 0x5468697320706572736F6E20697320616C7265616479206E6F7420616C6C6F77 PUSH1 0x44 DUP3 ADD MSTORE PUSH2 0x1959 PUSH1 0xF2 SHL PUSH1 0x64 DUP3 ADD MSTORE PUSH1 0x84 ADD PUSH2 0x2B4 JUMP JUMPDEST PUSH1 0x1 DUP1 SLOAD PUSH1 0x1 PUSH1 0x1 PUSH1 0xA0 SHL SUB SWAP1 DUP2 AND PUSH1 0x0 SWAP1 DUP2 MSTORE PUSH1 0x20 DUP2 DUP2 MSTORE PUSH1 0x40 DUP1 DUP4 KECCAK256 DUP7 DUP6 AND DUP1 DUP6 MSTORE PUSH1 0x7 SWAP1 SWAP2 ADD DUP4 MSTORE DUP2 DUP5 KECCAK256 DUP1 SLOAD PUSH1 0xFF NOT AND SWAP1 SSTORE SWAP5 SLOAD SWAP1 MLOAD SWAP3 DUP4 MSTORE SWAP1 SWAP3 AND SWAP2 PUSH32 0x28907A532A4B0D537E93C1AEF854E813C1A42238572B07EDC1B34C3F80E5A46B SWAP2 ADD JUMPDEST PUSH1 0x40 MLOAD DUP1 SWAP2 SUB SWAP1 LOG3 POP JUMP JUMPDEST PUSH1 0x1 SLOAD PUSH1 0x1 PUSH1 0x1 PUSH1 0xA0 SHL SUB AND CALLER EQ PUSH2 0x54C JUMPI PUSH1 0x40 MLOAD PUSH3 0x461BCD PUSH1 0xE5 SHL DUP2 MSTORE PUSH1 0x20 PUSH1 0x4 DUP3 ADD MSTORE PUSH1 0x15 PUSH1 0x24 DUP3 ADD MSTORE PUSH21 0x2CB7BA9030B932903737BA103A34329037BBB732B9 PUSH1 0x59 SHL PUSH1 0x44 DUP3 ADD MSTORE PUSH1 0x64 ADD PUSH2 0x2B4 JUMP JUMPDEST PUSH1 0x1 DUP1 SLOAD PUSH1 0x1 PUSH1 0x1 PUSH1 0xA0 SHL SUB SWAP1 DUP2 AND PUSH1 0x0 SWAP1 DUP2 MSTORE PUSH1 0x20 DUP2 DUP2 MSTORE PUSH1 0x40 DUP1 DUP4 KECCAK256 PUSH1 0x3 DUP1 DUP3 ADD SLOAD DUP6 MSTORE PUSH1 0x6 SWAP1 SWAP2 ADD DUP4 MSTORE DUP2 DUP5 KECCAK256 DUP1 SLOAD PUSH1 0x1 PUSH1 0x1 PUSH1 0xA0 SHL SUB NOT AND DUP9 DUP8 AND OR SWAP1 SSTORE SWAP5 SLOAD SWAP1 SWAP4 AND DUP3 MSTORE DUP2 SWAP1 MSTORE SWAP1 DUP2 KECCAK256 SWAP1 SWAP2 ADD DUP1 SLOAD SWAP2 PUSH2 0x5AA DUP4 PUSH2 0x939 JUMP JUMPDEST SWAP1 SWAP2 SSTORE POP POP PUSH1 0x1 DUP1 SLOAD PUSH1 0x1 PUSH1 0x1 PUSH1 0xA0 SHL SUB SWAP1 DUP2 AND PUSH1 0x0 SWAP1 DUP2 MSTORE PUSH1 0x20 DUP2 DUP2 MSTORE PUSH1 0x40 DUP1 DUP4 KECCAK256 DUP7 DUP6 AND DUP1 DUP6 MSTORE PUSH1 0x7 SWAP1 SWAP2 ADD DUP4 MSTORE SWAP3 DUP2 SWAP1 KECCAK256 DUP1 SLOAD PUSH1 0xFF NOT AND DUP7 OR SWAP1 SSTORE DUP5 SLOAD SWAP1 MLOAD SWAP5 DUP6 MSTORE SWAP2 SWAP4 SWAP2 SWAP1 SWAP3 AND SWAP2 PUSH32 0x28907A532A4B0D537E93C1AEF854E813C1A42238572B07EDC1B34C3F80E5A46B SWAP2 ADD PUSH2 0x4EF JUMP JUMPDEST PUSH1 0x1 SLOAD PUSH1 0x1 PUSH1 0x1 PUSH1 0xA0 SHL SUB AND CALLER EQ DUP1 PUSH2 0x661 JUMPI POP PUSH1 0x1 DUP1 SLOAD PUSH1 0x1 PUSH1 0x1 PUSH1 0xA0 SHL SUB AND PUSH1 0x0 SWAP1 DUP2 MSTORE PUSH1 0x20 DUP2 DUP2 MSTORE PUSH1 0x40 DUP1 DUP4 KECCAK256 CALLER DUP5 MSTORE PUSH1 0x7 ADD SWAP1 SWAP2 MSTORE SWAP1 KECCAK256 SLOAD PUSH1 0xFF AND ISZERO ISZERO EQ JUMPDEST PUSH2 0x67D JUMPI PUSH1 0x40 MLOAD PUSH3 0x461BCD PUSH1 0xE5 SHL DUP2 MSTORE PUSH1 0x4 ADD PUSH2 0x2B4 SWAP1 PUSH2 0x8BD JUMP JUMPDEST PUSH1 0x1 SLOAD PUSH1 0x1 PUSH1 0x1 PUSH1 0xA0 SHL SUB AND PUSH1 0x0 SWAP1 DUP2 MSTORE PUSH1 0x20 DUP2 SWAP1 MSTORE PUSH1 0x40 SWAP1 KECCAK256 SLOAD DUP2 GT ISZERO PUSH2 0x6E7 JUMPI PUSH1 0x40 MLOAD PUSH3 0x461BCD PUSH1 0xE5 SHL DUP2 MSTORE PUSH1 0x20 PUSH1 0x4 DUP3 ADD MSTORE PUSH1 0x1A PUSH1 0x24 DUP3 ADD MSTORE PUSH32 0x596F75722062616C616E6365206973206E6F7420656E6F756768000000000000 PUSH1 0x44 DUP3 ADD MSTORE PUSH1 0x64 ADD PUSH2 0x2B4 JUMP JUMPDEST PUSH1 0x1 SLOAD PUSH1 0x1 PUSH1 0x1 PUSH1 0xA0 SHL SUB AND PUSH1 0x0 SWAP1 DUP2 MSTORE PUSH1 0x20 DUP2 SWAP1 MSTORE PUSH1 0x40 DUP2 KECCAK256 DUP1 SLOAD DUP4 SWAP3 SWAP1 PUSH2 0x711 SWAP1 DUP5 SWAP1 PUSH2 0x952 JUMP JUMPDEST SWAP1 SWAP2 SSTORE POP POP PUSH1 0x40 DUP1 MLOAD DUP1 DUP3 ADD DUP3 MSTORE PUSH1 0x0 DUP1 DUP3 MSTORE PUSH1 0x20 SWAP2 DUP3 ADD DUP2 SWAP1 MSTORE DUP3 MLOAD DUP1 DUP5 ADD DUP5 MSTORE DUP5 DUP2 MSTORE TIMESTAMP DUP2 DUP5 ADD SWAP1 DUP2 MSTORE PUSH1 0x1 DUP1 SLOAD PUSH1 0x1 PUSH1 0x1 PUSH1 0xA0 SHL SUB SWAP1 DUP2 AND DUP6 MSTORE DUP5 DUP7 MSTORE DUP7 DUP6 KECCAK256 PUSH1 0x2 DUP1 DUP3 ADD SLOAD DUP8 MSTORE PUSH1 0x5 SWAP1 SWAP2 ADD DUP8 MSTORE DUP8 DUP7 KECCAK256 DUP6 MLOAD DUP2 SSTORE SWAP4 MLOAD SWAP4 DUP4 ADD SWAP4 SWAP1 SWAP4 SSTORE SWAP1 SLOAD AND DUP4 MSTORE SWAP3 DUP3 SWAP1 MSTORE SWAP3 DUP2 KECCAK256 SWAP1 SWAP2 ADD DUP1 SLOAD SWAP2 PUSH2 0x78E DUP4 PUSH2 0x939 JUMP JUMPDEST SWAP1 SWAP2 SSTORE POP POP PUSH1 0x40 MLOAD PUSH1 0x1 PUSH1 0x1 PUSH1 0xA0 SHL SUB DUP5 AND SWAP1 DUP4 ISZERO PUSH2 0x8FC MUL SWAP1 DUP5 SWAP1 PUSH1 0x0 DUP2 DUP2 DUP2 DUP6 DUP9 DUP9 CALL SWAP4 POP POP POP POP ISZERO DUP1 ISZERO PUSH2 0x7C9 JUMPI RETURNDATASIZE PUSH1 0x0 DUP1 RETURNDATACOPY RETURNDATASIZE PUSH1 0x0 REVERT JUMPDEST POP PUSH1 0x1 PUSH1 0x1 PUSH1 0xA0 SHL SUB DUP4 AND PUSH1 0x0 SWAP1 DUP2 MSTORE PUSH1 0x20 DUP2 SWAP1 MSTORE PUSH1 0x40 DUP2 KECCAK256 DUP1 SLOAD DUP5 SWAP3 SWAP1 PUSH2 0x7F2 SWAP1 DUP5 SWAP1 PUSH2 0x920 JUMP JUMPDEST SWAP1 SWAP2 SSTORE POP POP PUSH1 0x40 MLOAD DUP3 DUP2 MSTORE PUSH1 0x1 PUSH1 0x1 PUSH1 0xA0 SHL SUB DUP5 AND SWAP1 CALLER SWAP1 PUSH32 0x9AFB1A228F187030AA218B66CB89A451FD8D475D506B8E7771F41FAF5AEB2976 SWAP1 PUSH1 0x20 ADD PUSH1 0x40 MLOAD DUP1 SWAP2 SUB SWAP1 LOG3 POP POP POP JUMP JUMPDEST PUSH1 0x1 PUSH1 0x1 PUSH1 0xA0 SHL SUB DUP2 AND DUP2 EQ PUSH2 0x851 JUMPI PUSH1 0x0 DUP1 REVERT JUMPDEST POP JUMP JUMPDEST PUSH1 0x0 PUSH1 0x20 DUP3 DUP5 SUB SLT ISZERO PUSH2 0x866 JUMPI PUSH1 0x0 DUP1 REVERT JUMPDEST DUP2 CALLDATALOAD PUSH2 0x871 DUP2 PUSH2 0x83C JUMP JUMPDEST SWAP4 SWAP3 POP POP POP JUMP JUMPDEST PUSH1 0x0 PUSH1 0x20 DUP3 DUP5 SUB SLT ISZERO PUSH2 0x88A JUMPI PUSH1 0x0 DUP1 REVERT JUMPDEST POP CALLDATALOAD SWAP2 SWAP1 POP JUMP JUMPDEST PUSH1 0x0 DUP1 PUSH1 0x40 DUP4 DUP6 SUB SLT ISZERO PUSH2 0x8A4 JUMPI PUSH1 0x0 DUP1 REVERT JUMPDEST DUP3 CALLDATALOAD PUSH2 0x8AF DUP2 PUSH2 0x83C JUMP JUMPDEST SWAP5 PUSH1 0x20 SWAP4 SWAP1 SWAP4 ADD CALLDATALOAD SWAP4 POP POP POP JUMP JUMPDEST PUSH1 0x20 DUP1 DUP3 MSTORE PUSH1 0x2D SWAP1 DUP3 ADD MSTORE PUSH32 0x596F7520617265206E6F7420746865206F776E657220616E6420796F75206172 PUSH1 0x40 DUP3 ADD MSTORE PUSH13 0x19481B9BDD08185B1B1BDDD959 PUSH1 0x9A SHL PUSH1 0x60 DUP3 ADD MSTORE PUSH1 0x80 ADD SWAP1 JUMP JUMPDEST PUSH4 0x4E487B71 PUSH1 0xE0 SHL PUSH1 0x0 MSTORE PUSH1 0x11 PUSH1 0x4 MSTORE PUSH1 0x24 PUSH1 0x0 REVERT JUMPDEST DUP1 DUP3 ADD DUP1 DUP3 GT ISZERO PUSH2 0x933 JUMPI PUSH2 0x933 PUSH2 0x90A JUMP JUMPDEST SWAP3 SWAP2 POP POP JUMP JUMPDEST PUSH1 0x0 PUSH1 0x1 DUP3 ADD PUSH2 0x94B JUMPI PUSH2 0x94B PUSH2 0x90A JUMP JUMPDEST POP PUSH1 0x1 ADD SWAP1 JUMP JUMPDEST DUP2 DUP2 SUB DUP2 DUP2 GT ISZERO PUSH2 0x933 JUMPI PUSH2 0x933 PUSH2 0x90A JUMP INVALID LOG2 PUSH5 0x6970667358 0x22 SLT KECCAK256 0xBF 0x1E 0xE0 0x4C PUSH24 0x48332BE3A56E76B57BACAAA6E22A522495E2DC1C05FDDB24 DUP9 DUP15 0xDF PUSH5 0x736F6C6343 STOP ADDMOD XOR STOP CALLER "},"methodIdentifiers":{"accounts(address)":"5e5c06e2","checkAlloweds(uint256)":"41ac7eb8","depositMoney()":"16c05aa2","getBalance(address)":"f8b2cb4f","owner()":"8da5cb5b","setAllowed(address)":"c0e79a11","setNotAllowed(address)":"36047015","withdrawMoney(address,uint256)":"f274c897"}},"storageLayout":{"storage":[{"astId":5390,"contract":"contracts/SharedWallet.sol:SharedWallet","label":"accounts","offset":0,"slot":"0","type":"t_mapping(t_address,t_struct(Account)5385_storage)"},{"astId":5392,"contract":"contracts/SharedWallet.sol:SharedWallet","label":"owner","offset":0,"slot":"1","type":"t_address"}],"types":{"t_address":{"encoding":"inplace","label":"address","numberOfBytes":"20"},"t_bool":{"encoding":"inplace","label":"bool","numberOfBytes":"1"},"t_mapping(t_address,t_bool)":{"encoding":"mapping","key":"t_address","label":"mapping(address => bool)","numberOfBytes":"32","value":"t_bool"},"t_mapping(t_address,t_struct(Account)5385_storage)":{"encoding":"mapping","key":"t_address","label":"mapping(address => struct SharedWallet.Account)","numberOfBytes":"32","value":"t_struct(Account)5385_storage"},"t_mapping(t_uint256,t_address)":{"encoding":"mapping","key":"t_uint256","label":"mapping(uint256 => address)","numberOfBytes":"32","value":"t_address"},"t_mapping(t_uint256,t_struct(Transaction)5358_storage)":{"encoding":"mapping","key":"t_uint256","label":"mapping(uint256 => struct SharedWallet.Transaction)","numberOfBytes":"32","value":"t_struct(Transaction)5358_storage"},"t_struct(Account)5385_storage":{"encoding":"inplace","label":"struct SharedWallet.Account","members":[{"astId":5360,"contract":"contracts/SharedWallet.sol:SharedWallet","label":"totalMoney","offset":0,"slot":"0","type":"t_uint256"},{"astId":5362,"contract":"contracts/SharedWallet.sol:SharedWallet","label":"numOfDeposits","offset":0,"slot":"1","type":"t_uint256"},{"astId":5364,"contract":"contracts/SharedWallet.sol:SharedWallet","label":"numOfWithdrawals","offset":0,"slot":"2","type":"t_uint256"},{"astId":5366,"contract":"contracts/SharedWallet.sol:SharedWallet","label":"numPeopleAllowed","offset":0,"slot":"3","type":"t_uint256"},{"astId":5371,"contract":"contracts/SharedWallet.sol:SharedWallet","label":"deposits","offset":0,"slot":"4","type":"t_mapping(t_uint256,t_struct(Transaction)5358_storage)"},{"astId":5376,"contract":"contracts/SharedWallet.sol:SharedWallet","label":"withdrawals","offset":0,"slot":"5","type":"t_mapping(t_uint256,t_struct(Transaction)5358_storage)"},{"astId":5380,"contract":"contracts/SharedWallet.sol:SharedWallet","label":"peopleAllowed","offset":0,"slot":"6","type":"t_mapping(t_uint256,t_address)"},{"astId":5384,"contract":"contracts/SharedWallet.sol:SharedWallet","label":"isAllowed","offset":0,"slot":"7","type":"t_mapping(t_address,t_bool)"}],"numberOfBytes":"256"},"t_struct(Transaction)5358_storage":{"encoding":"inplace","label":"struct SharedWallet.Transaction","members":[{"astId":5355,"contract":"contracts/SharedWallet.sol:SharedWallet","label":"amount","offset":0,"slot":"0","type":"t_uint256"},{"astId":5357,"contract":"contracts/SharedWallet.sol:SharedWallet","label":"timestamp","offset":0,"slot":"1","type":"t_uint256"}],"numberOfBytes":"64"},"t_uint256":{"encoding":"inplace","label":"uint256","numberOfBytes":"32"}}}}}}