{"contracts/SendMoneyExample.sol":{"SendWithdrawMoney":{"abi":[{"inputs":[],"name":"balanceRecieved","outputs":[{"internalType":"uint256","name":"","type":"uint256"}],"stateMutability":"view","type":"function"},{"inputs":[],"name":"deposit","outputs":[],"stateMutability":"payable","type":"function"},{"inputs":[],"name":"getContractBalance","outputs":[{"internalType":"uint256","name":"","type":"uint256"}],"stateMutability":"view","type":"function"},{"inputs":[{"internalType":"address payable","name":"to","type":"address"}],"name":"withdrawAddress","outputs":[],"stateMutability":"nonpayable","type":"function"},{"inputs":[],"name":"withdrawAll","outputs":[],"stateMutability":"nonpayable","type":"function"}],"evm":{"bytecode":{"linkReferences":{},"object":"608060405234801561001057600080fd5b506101b0806100206000396000f3fe60806040526004361061004a5760003560e01c80636f9fb98a1461004f578063853828b614610070578063d0e30db014610087578063d4c06b8d1461008f578063da16ff04146100a5575b600080fd5b34801561005b57600080fd5b50475b60405190815260200160405180910390f35b34801561007c57600080fd5b506100856100c5565b005b6100856100f8565b34801561009b57600080fd5b5061005e60005481565b3480156100b157600080fd5b506100856100c0366004610123565b610110565b33806108fc475b6040518115909202916000818181858888f193505050501580156100f4573d6000803e3d6000fd5b5050565b346000808282546101099190610153565b9091555050565b6001600160a01b0381166108fc476100cc565b60006020828403121561013557600080fd5b81356001600160a01b038116811461014c57600080fd5b9392505050565b8082018082111561017457634e487b7160e01b600052601160045260246000fd5b9291505056fea2646970667358221220f977c5efb44b30e6839a4a494b6c752a107f63571c876892c5e577ef6b5c07d964736f6c63430008180033","opcodes":"PUSH1 0x80 PUSH1 0x40 MSTORE CALLVALUE DUP1 ISZERO PUSH2 0x10 JUMPI PUSH1 0x0 DUP1 REVERT JUMPDEST POP PUSH2 0x1B0 DUP1 PUSH2 0x20 PUSH1 0x0 CODECOPY PUSH1 0x0 RETURN INVALID PUSH1 0x80 PUSH1 0x40 MSTORE PUSH1 0x4 CALLDATASIZE LT PUSH2 0x4A JUMPI PUSH1 0x0 CALLDATALOAD PUSH1 0xE0 SHR DUP1 PUSH4 0x6F9FB98A EQ PUSH2 0x4F JUMPI DUP1 PUSH4 0x853828B6 EQ PUSH2 0x70 JUMPI DUP1 PUSH4 0xD0E30DB0 EQ PUSH2 0x87 JUMPI DUP1 PUSH4 0xD4C06B8D EQ PUSH2 0x8F JUMPI DUP1 PUSH4 0xDA16FF04 EQ PUSH2 0xA5 JUMPI JUMPDEST PUSH1 0x0 DUP1 REVERT JUMPDEST CALLVALUE DUP1 ISZERO PUSH2 0x5B JUMPI PUSH1 0x0 DUP1 REVERT JUMPDEST POP SELFBALANCE JUMPDEST PUSH1 0x40 MLOAD SWAP1 DUP2 MSTORE PUSH1 0x20 ADD PUSH1 0x40 MLOAD DUP1 SWAP2 SUB SWAP1 RETURN JUMPDEST CALLVALUE DUP1 ISZERO PUSH2 0x7C JUMPI PUSH1 0x0 DUP1 REVERT JUMPDEST POP PUSH2 0x85 PUSH2 0xC5 JUMP JUMPDEST STOP JUMPDEST PUSH2 0x85 PUSH2 0xF8 JUMP JUMPDEST CALLVALUE DUP1 ISZERO PUSH2 0x9B JUMPI PUSH1 0x0 DUP1 REVERT JUMPDEST POP PUSH2 0x5E PUSH1 0x0 SLOAD DUP2 JUMP JUMPDEST CALLVALUE DUP1 ISZERO PUSH2 0xB1 JUMPI PUSH1 0x0 DUP1 REVERT JUMPDEST POP PUSH2 0x85 PUSH2 0xC0 CALLDATASIZE PUSH1 0x4 PUSH2 0x123 JUMP JUMPDEST PUSH2 0x110 JUMP JUMPDEST CALLER DUP1 PUSH2 0x8FC SELFBALANCE JUMPDEST PUSH1 0x40 MLOAD DUP2 ISZERO SWAP1 SWAP3 MUL SWAP2 PUSH1 0x0 DUP2 DUP2 DUP2 DUP6 DUP9 DUP9 CALL SWAP4 POP POP POP POP ISZERO DUP1 ISZERO PUSH2 0xF4 JUMPI RETURNDATASIZE PUSH1 0x0 DUP1 RETURNDATACOPY RETURNDATASIZE PUSH1 0x0 REVERT JUMPDEST POP POP JUMP JUMPDEST CALLVALUE PUSH1 0x0 DUP1 DUP3 DUP3 SLOAD PUSH2 0x109 SWAP2 SWAP1 PUSH2 0x153 JUMP JUMPDEST SWAP1 SWAP2 SSTORE POP POP JUMP JUMPDEST PUSH1 0x1 PUSH1 0x1 PUSH1 0xA0 SHL SUB DUP2 AND PUSH2 0x8FC SELFBALANCE PUSH2 0xCC JUMP JUMPDEST PUSH1 0x0 PUSH1 0x20 DUP3 DUP5 SUB SLT ISZERO PUSH2 0x135 JUMPI PUSH1 0x0 DUP1 REVERT JUMPDEST DUP2 CALLDATALOAD PUSH1 0x1 PUSH1 0x1 PUSH1 0xA0 SHL SUB DUP2 AND DUP2 EQ PUSH2 0x14C JUMPI PUSH1 0x0 DUP1 REVERT JUMPDEST SWAP4 SWAP3 POP POP POP JUMP JUMPDEST DUP1 DUP3 ADD DUP1 DUP3 GT ISZERO PUSH2 0x174 JUMPI PUSH4 0x4E487B71 PUSH1 0xE0 SHL PUSH1 0x0 MSTORE PUSH1 0x11 PUSH1 0x4 MSTORE PUSH1 0x24 PUSH1 0x0 REVERT JUMPDEST SWAP3 SWAP2 POP POP JUMP INVALID LOG2 PUSH5 0x6970667358 0x22 SLT KECCAK256 0xF9 PUSH24 0xC5EFB44B30E6839A4A494B6C752A107F63571C876892C5E5 PUSH24 0xEF6B5C07D964736F6C634300081800330000000000000000 "},"methodIdentifiers":{"balanceRecieved()":"d4c06b8d","deposit()":"d0e30db0","getContractBalance()":"6f9fb98a","withdrawAddress(address)":"da16ff04","withdrawAll()":"853828b6"}}}}}