{
  "_format": "hh-sol-artifact-1",
  "contractName": "SmartContractWallet",
  "sourceName": "contracts/SmartWallet.sol",
  "abi": [
    {
      "inputs": [],
      "stateMutability": "nonpayable",
      "type": "constructor"
    },
    {
      "inputs": [
        {
          "internalType": "address payable",
          "name": "to_",
          "type": "address"
        },
        {
          "internalType": "uint256",
          "name": "amount_",
          "type": "uint256"
        },
        {
          "internalType": "bytes",
          "name": "payload",
          "type": "bytes"
        }
      ],
      "name": "Transfer",
      "outputs": [
        {
          "internalType": "bytes",
          "name": "",
          "type": "bytes"
        }
      ],
      "stateMutability": "nonpayable",
      "type": "function"
    },
    {
      "inputs": [
        {
          "internalType": "address",
          "name": "",
          "type": "address"
        }
      ],
      "name": "allowance",
      "outputs": [
        {
          "internalType": "uint256",
          "name": "",
          "type": "uint256"
        }
      ],
      "stateMutability": "view",
      "type": "function"
    },
    {
      "inputs": [],
      "name": "confirmationFromGuardiansForReset",
      "outputs": [
        {
          "internalType": "uint256",
          "name": "",
          "type": "uint256"
        }
      ],
      "stateMutability": "view",
      "type": "function"
    },
    {
      "inputs": [
        {
          "internalType": "address",
          "name": "",
          "type": "address"
        }
      ],
      "name": "guardians",
      "outputs": [
        {
          "internalType": "bool",
          "name": "",
          "type": "bool"
        }
      ],
      "stateMutability": "view",
      "type": "function"
    },
    {
      "inputs": [
        {
          "internalType": "address",
          "name": "",
          "type": "address"
        }
      ],
      "name": "isAllowedToSend",
      "outputs": [
        {
          "internalType": "bool",
          "name": "",
          "type": "bool"
        }
      ],
      "stateMutability": "view",
      "type": "function"
    },
    {
      "inputs": [],
      "name": "owner",
      "outputs": [
        {
          "internalType": "address payable",
          "name": "",
          "type": "address"
        }
      ],
      "stateMutability": "view",
      "type": "function"
    },
    {
      "inputs": [
        {
          "internalType": "address payable",
          "name": "newOwner_",
          "type": "address"
        }
      ],
      "name": "proposeNewOwner",
      "outputs": [],
      "stateMutability": "nonpayable",
      "type": "function"
    },
    {
      "inputs": [
        {
          "internalType": "address",
          "name": "for_",
          "type": "address"
        },
        {
          "internalType": "uint256",
          "name": "amount_",
          "type": "uint256"
        }
      ],
      "name": "setAllowance",
      "outputs": [],
      "stateMutability": "nonpayable",
      "type": "function"
    },
    {
      "inputs": [
        {
          "internalType": "address",
          "name": "guardian_",
          "type": "address"
        },
        {
          "internalType": "bool",
          "name": "isGuardian",
          "type": "bool"
        }
      ],
      "name": "setGuardian",
      "outputs": [],
      "stateMutability": "nonpayable",
      "type": "function"
    },
    {
      "stateMutability": "payable",
      "type": "receive"
    }
  ],
  "bytecode": "0x608060405234801561001057600080fd5b50600080546001600160a01b031916331790556109ce806100326000396000f3fe60806040526004361061008a5760003560e01c80633e5beab9116100595780633e5beab91461014d57806358e404b114610188578063850a69191461019d5780638da5cb5b146101ca578063b1f8100d1461020257600080fd5b80630633b14a146100965780630bc605ad146100db5780632b8a1c5a1461010b578063310ec4a71461012d57600080fd5b3661009157005b600080fd5b3480156100a257600080fd5b506100c66100b136600461076c565b60036020526000908152604090205460ff1681565b60405190151581526020015b60405180910390f35b3480156100e757600080fd5b506100c66100f636600461076c565b60026020526000908152604090205460ff1681565b34801561011757600080fd5b5061012b610126366004610790565b610222565b005b34801561013957600080fd5b5061012b6101483660046107ce565b6102ac565b34801561015957600080fd5b5061017a61016836600461076c565b60016020526000908152604090205481565b6040519081526020016100d2565b34801561019457600080fd5b5061017a600381565b3480156101a957600080fd5b506101bd6101b8366004610810565b610370565b6040516100d29190610901565b3480156101d657600080fd5b506000546101ea906001600160a01b031681565b6040516001600160a01b0390911681526020016100d2565b34801561020e57600080fd5b5061012b61021d36600461076c565b6105ef565b6000546001600160a01b031633146102815760405162461bcd60e51b815260206004820181905260248201527f796f7520617265206e6f7420746865206f776e65722c2061626f7274696e672160448201526064015b60405180910390fd5b6001600160a01b03919091166000908152600360205260409020805460ff1916911515919091179055565b6000546001600160a01b031633146103065760405162461bcd60e51b815260206004820181905260248201527f796f7520617265206e6f7420746865206f776e65722c2061626f7274696e67216044820152606401610278565b6001600160a01b0382166000908152600160205260409020819055801561034e576001600160a01b0382166000908152600260205260409020805460ff191660011790555050565b506001600160a01b03166000908152600260205260409020805460ff19169055565b6060478311156103dc5760405162461bcd60e51b815260206004820152603160248201527f43616e27742073656e64206d6f7265207468616e2074686520636f6e747261636044820152703a1037bbb739961030b137b93a34b7339760791b6064820152608401610278565b6000546001600160a01b0316330361052c57336000908152600160205260409020548311156104735760405162461bcd60e51b815260206004820152603e60248201527f596f752061726520747279696e6720746f2073656e64206d6f7265207468616e60448201527f20796f752061726520616c6c6f77656420746f2c2061626f7274696e672100006064820152608401610278565b3360009081526002602052604090205460ff166105075760405162461bcd60e51b815260206004820152604660248201527f596f7520617265206e6f7420616c6c6f77656420746f2073656e6420616e797460448201527f68696e67206f6e207468697320736d61727420636f6e74726163742c2061626f6064820152657274696e672160d01b608482015260a401610278565b336000908152600160205260408120805485929061052690849061094a565b90915550505b600080856001600160a01b031685856040516105489190610963565b60006040518083038185875af1925050503d8060008114610585576040519150601f19603f3d011682016040523d82523d6000602084013e61058a565b606091505b5091509150816105e65760405162461bcd60e51b815260206004820152602160248201527f41626f7274696e672c2063616c6c20776173206e6f74207375636365737366756044820152601b60fa1b6064820152608401610278565b95945050505050565b3360009081526003602052604090205460ff166106655760405162461bcd60e51b815260206004820152602e60248201527f596f7520617265206e6f7420677561726469616e206f6620746869732077616c60448201526d6c65742c2061626f7274696e672160901b6064820152608401610278565b6001600160a01b038116600090815260046020908152604080832033845290915290205460ff16156106d95760405162461bcd60e51b815260206004820152601c60248201527f596f7520616c726561647920766f7465642c2061626f7274696e6721000000006044820152606401610278565b6005546001600160a01b0382811691161461070f57600580546001600160a01b0319166001600160a01b03831617905560006006555b6006805490600061071f8361097f565b91905055506003600654106107545760058054600080546001600160a01b03199081166001600160a01b038416179091551690555b50565b6001600160a01b038116811461075457600080fd5b60006020828403121561077e57600080fd5b813561078981610757565b9392505050565b600080604083850312156107a357600080fd5b82356107ae81610757565b9150602083013580151581146107c357600080fd5b809150509250929050565b600080604083850312156107e157600080fd5b82356107ec81610757565b946020939093013593505050565b634e487b7160e01b600052604160045260246000fd5b60008060006060848603121561082557600080fd5b833561083081610757565b925060208401359150604084013567ffffffffffffffff8082111561085457600080fd5b818601915086601f83011261086857600080fd5b81358181111561087a5761087a6107fa565b604051601f8201601f19908116603f011681019083821181831017156108a2576108a26107fa565b816040528281528960208487010111156108bb57600080fd5b8260208601602083013760006020848301015280955050505050509250925092565b60005b838110156108f85781810151838201526020016108e0565b50506000910152565b60208152600082518060208401526109208160408501602087016108dd565b601f01601f19169190910160400192915050565b634e487b7160e01b600052601160045260246000fd5b8181038181111561095d5761095d610934565b92915050565b600082516109758184602087016108dd565b9190910192915050565b60006001820161099157610991610934565b506001019056fea2646970667358221220c41664eb76b8cdea19021b9cc280e0c48a1067c4872a94e1465b5494fe8a142164736f6c63430008180033",
  "linkReferences": {},
  "deployedLinkReferences": {}
}